{
  "_format": "hh-sol-artifact-1",
  "contractName": "L1ScrollBridgeAdapter",
  "sourceName": "contracts/evm/adapters/L1ScrollBridgeAdapter.sol",
  "abi": [
    {
      "inputs": [
        {
          "internalType": "address",
          "name": "_l1ScrollMessenger",
          "type": "address"
        }
      ],
      "stateMutability": "nonpayable",
      "type": "constructor"
    },
    {
      "anonymous": false,
      "inputs": [
        {
          "indexed": true,
          "internalType": "uint256",
          "name": "newL2Root",
          "type": "uint256"
        },
        {
          "indexed": false,
          "internalType": "uint256",
          "name": "l2Block",
          "type": "uint256"
        }
      ],
      "name": "ReceivedNewL2Root",
      "type": "event"
    },
    {
      "inputs": [],
      "name": "getLocalRootAndBlock",
      "outputs": [
        {
          "internalType": "uint256",
          "name": "",
          "type": "uint256"
        },
        {
          "internalType": "uint256",
          "name": "",
          "type": "uint256"
        }
      ],
      "stateMutability": "view",
      "type": "function"
    },
    {
      "inputs": [
        {
          "internalType": "uint256",
          "name": "_l2Root",
          "type": "uint256"
        },
        {
          "internalType": "uint256",
          "name": "_l2BlockNumber",
          "type": "uint256"
        }
      ],
      "name": "getNewRootFromL2",
      "outputs": [],
      "stateMutability": "nonpayable",
      "type": "function"
    },
    {
      "inputs": [],
      "name": "gigaBridge",
      "outputs": [
        {
          "internalType": "address",
          "name": "",
          "type": "address"
        }
      ],
      "stateMutability": "view",
      "type": "function"
    },
    {
      "inputs": [
        {
          "internalType": "address",
          "name": "_l2ScrollBridgeAdapter",
          "type": "address"
        },
        {
          "internalType": "address",
          "name": "_gigaRootBridge",
          "type": "address"
        }
      ],
      "name": "initialize",
      "outputs": [],
      "stateMutability": "nonpayable",
      "type": "function"
    },
    {
      "inputs": [],
      "name": "l1ScrollMessenger",
      "outputs": [
        {
          "internalType": "address",
          "name": "",
          "type": "address"
        }
      ],
      "stateMutability": "view",
      "type": "function"
    },
    {
      "inputs": [],
      "name": "l2ScrollBridgeAdapter",
      "outputs": [
        {
          "internalType": "address",
          "name": "",
          "type": "address"
        }
      ],
      "stateMutability": "view",
      "type": "function"
    },
    {
      "inputs": [],
      "name": "mostRecentL2Root",
      "outputs": [
        {
          "internalType": "uint256",
          "name": "",
          "type": "uint256"
        }
      ],
      "stateMutability": "view",
      "type": "function"
    },
    {
      "inputs": [],
      "name": "mostRecentL2RootBlockNumber",
      "outputs": [
        {
          "internalType": "uint256",
          "name": "",
          "type": "uint256"
        }
      ],
      "stateMutability": "view",
      "type": "function"
    },
    {
      "inputs": [
        {
          "internalType": "uint256",
          "name": "_newGigaRoot",
          "type": "uint256"
        }
      ],
      "name": "receiveGigaRoot",
      "outputs": [],
      "stateMutability": "payable",
      "type": "function"
    },
    {
      "inputs": [
        {
          "internalType": "uint256",
          "name": "_newGigaRoot",
          "type": "uint256"
        },
        {
          "internalType": "uint256",
          "name": "_gasLimit",
          "type": "uint256"
        }
      ],
      "name": "receiveGigaRoot",
      "outputs": [],
      "stateMutability": "payable",
      "type": "function"
    }
  ],
  "bytecode": "0x60806040526005805460ff60a01b19169055348015601b575f5ffd5b5060405161096c38038061096c833981016040819052603891606a565b60048054336001600160a01b031991821617909155600580549091166001600160a01b03929092169190911790556095565b5f602082840312156079575f5ffd5b81516001600160a01b0381168114608e575f5ffd5b9392505050565b6108ca806100a25f395ff3fe6080604052600436106100ad575f3560e01c8063a98f704411610066578063ae5582fa1161004c578063ae5582fa1461018b578063df374165146101b4578063ea300187146101d3575f5ffd5b8063a98f70441461013f578063ac04371014610176575f5ffd5b80632f4eb62d116100965780632f4eb62d146100e557806345c8c2891461010d578063485cc95514610120575f5ffd5b8063010bb871146100b157806327e74ca3146100d2575b5f5ffd5b3480156100bc575f5ffd5b506100d06100cb36600461078d565b6101f1565b005b6100d06100e03660046107ad565b6103be565b3480156100f0575f5ffd5b506100fa60015481565b6040519081526020015b60405180910390f35b6100d061011b36600461078d565b610428565b34801561012b575f5ffd5b506100d061013a3660046107d8565b610432565b34801561014a575f5ffd5b5060055461015e906001600160a01b031681565b6040516001600160a01b039091168152602001610104565b348015610181575f5ffd5b506100fa60025481565b348015610196575f5ffd5b5061019f610559565b60408051928352602083019190915201610104565b3480156101bf575f5ffd5b5060035461015e906001600160a01b031681565b3480156101de575f5ffd5b505f5461015e906001600160a01b031681565b6005546001600160a01b031633146102765760405162461bcd60e51b815260206004820152602860248201527f66756e6374696f6e206e6f742063616c6c6564206279206c315363726f6c6c4d60448201527f657373656e67657200000000000000000000000000000000000000000000000060648201526084015b60405180910390fd5b60055f9054906101000a90046001600160a01b03166001600160a01b0316636e296e456040518163ffffffff1660e01b8152600401602060405180830381865afa1580156102c6573d5f5f3e3d5ffd5b505050506040513d601f19601f820116820180604052508101906102ea919061080f565b5f546001600160a01b0390811691161461036c5760405162461bcd60e51b815260206004820152603b60248201527f636f6e7472616374206d6573736167696e672066726f6d204c32206973206e6f60448201527f7420746865204c325363726f6c6c427269646765416461707465720000000000606482015260840161026d565b817f475b5c7799f48003a7afb7bac86d23c4d2cfd499581b90657c981e4616318a2c8260405161039e91815260200190565b60405180910390a280600254116103ba57600182905560028190555b5050565b6003546001600160a01b031633146104185760405162461bcd60e51b815260206004820152600e60248201527f4e6f742067696761427269646765000000000000000000000000000000000000604482015260640161026d565b61042581621e84806106a1565b50565b6103ba82826106a1565b6004546001600160a01b0316331461048c5760405162461bcd60e51b815260206004820152601060248201527f4e6f7420746865206465706c6f79657200000000000000000000000000000000604482015260640161026d565b600554600160a01b900460ff16156104e65760405162461bcd60e51b815260206004820152601960248201527f63616e7420696e697469616c697a65206f6e6c79206f6e636500000000000000604482015260640161026d565b600580547fffffffffffffffffffffff00ffffffffffffffffffffffffffffffffffffffff16600160a01b1790555f80546001600160a01b039384167fffffffffffffffffffffffff00000000000000000000000000000000000000009182161790915560038054929093169116179055565b5f5f5f600154116105f85760405162461bcd60e51b815260206004820152605060248201527f416e204c3220726f6f74206861736e277420796574206265656e20627269646760448201527f656420746f207468697320636f6e74726163742e2072656672657368526f6f7460648201527f206d7573742062652063616c6c65642e00000000000000000000000000000000608482015260a40161026d565b5f600254116106955760405162461bcd60e51b815260206004820152605060248201527f416e204c3220726f6f74206861736e277420796574206265656e20627269646760448201527f656420746f207468697320636f6e74726163742e2072656672657368526f6f7460648201527f206d7573742062652063616c6c65642e00000000000000000000000000000000608482015260a40161026d565b50506001546002549091565b6005545f805460408051602480820188905282518083039091018152604490910182526020810180517bffffffffffffffffffffffffffffffffffffffffffffffffffffffff167f27e74ca30000000000000000000000000000000000000000000000000000000017905290517f5f7b15770000000000000000000000000000000000000000000000000000000081526001600160a01b0394851694635f7b157794349461075b9492169290919088903290600401610831565b5f604051808303818588803b158015610772575f5ffd5b505af1158015610784573d5f5f3e3d5ffd5b50505050505050565b5f5f6040838503121561079e575f5ffd5b50508035926020909101359150565b5f602082840312156107bd575f5ffd5b5035919050565b6001600160a01b0381168114610425575f5ffd5b5f5f604083850312156107e9575f5ffd5b82356107f4816107c4565b91506020830135610804816107c4565b809150509250929050565b5f6020828403121561081f575f5ffd5b815161082a816107c4565b9392505050565b6001600160a01b038616815284602082015260a060408201525f84518060a0840152806020870160c085015e5f60c0828501015260c0601f19601f8301168401019150508360608301526001600160a01b0383166080830152969550505050505056fea2646970667358221220680ce0c09327ebb72f443401a482a900211ecf80e98358e5c80a762c112c992164736f6c634300081d0033",
  "linkReferences": {},
  "deployedLinkReferences": {}
}