{
  "_format": "hh-sol-artifact-1",
  "contractName": "L2WarpToad",
  "sourceName": "contracts/evm/warptoad/L2WarpToad.sol",
  "abi": [
    {
      "inputs": [
        {
          "internalType": "uint8",
          "name": "_maxTreeDepth",
          "type": "uint8"
        },
        {
          "internalType": "address",
          "name": "_withdrawVerifier",
          "type": "address"
        },
        {
          "internalType": "address",
          "name": "_nativeToken",
          "type": "address"
        },
        {
          "internalType": "string",
          "name": "name",
          "type": "string"
        },
        {
          "internalType": "string",
          "name": "symbol",
          "type": "string"
        }
      ],
      "stateMutability": "nonpayable",
      "type": "constructor"
    },
    {
      "inputs": [
        {
          "internalType": "address",
          "name": "spender",
          "type": "address"
        },
        {
          "internalType": "uint256",
          "name": "allowance",
          "type": "uint256"
        },
        {
          "internalType": "uint256",
          "name": "needed",
          "type": "uint256"
        }
      ],
      "name": "ERC20InsufficientAllowance",
      "type": "error"
    },
    {
      "inputs": [
        {
          "internalType": "address",
          "name": "sender",
          "type": "address"
        },
        {
          "internalType": "uint256",
          "name": "balance",
          "type": "uint256"
        },
        {
          "internalType": "uint256",
          "name": "needed",
          "type": "uint256"
        }
      ],
      "name": "ERC20InsufficientBalance",
      "type": "error"
    },
    {
      "inputs": [
        {
          "internalType": "address",
          "name": "approver",
          "type": "address"
        }
      ],
      "name": "ERC20InvalidApprover",
      "type": "error"
    },
    {
      "inputs": [
        {
          "internalType": "address",
          "name": "receiver",
          "type": "address"
        }
      ],
      "name": "ERC20InvalidReceiver",
      "type": "error"
    },
    {
      "inputs": [
        {
          "internalType": "address",
          "name": "sender",
          "type": "address"
        }
      ],
      "name": "ERC20InvalidSender",
      "type": "error"
    },
    {
      "inputs": [
        {
          "internalType": "address",
          "name": "spender",
          "type": "address"
        }
      ],
      "name": "ERC20InvalidSpender",
      "type": "error"
    },
    {
      "anonymous": false,
      "inputs": [
        {
          "indexed": true,
          "internalType": "address",
          "name": "owner",
          "type": "address"
        },
        {
          "indexed": true,
          "internalType": "address",
          "name": "spender",
          "type": "address"
        },
        {
          "indexed": false,
          "internalType": "uint256",
          "name": "value",
          "type": "uint256"
        }
      ],
      "name": "Approval",
      "type": "event"
    },
    {
      "anonymous": false,
      "inputs": [
        {
          "indexed": true,
          "internalType": "uint256",
          "name": "commitment",
          "type": "uint256"
        },
        {
          "indexed": false,
          "internalType": "uint256",
          "name": "amount",
          "type": "uint256"
        },
        {
          "indexed": false,
          "internalType": "uint256",
          "name": "index",
          "type": "uint256"
        }
      ],
      "name": "Burn",
      "type": "event"
    },
    {
      "anonymous": false,
      "inputs": [
        {
          "indexed": true,
          "internalType": "address",
          "name": "from",
          "type": "address"
        },
        {
          "indexed": true,
          "internalType": "address",
          "name": "to",
          "type": "address"
        },
        {
          "indexed": false,
          "internalType": "uint256",
          "name": "value",
          "type": "uint256"
        }
      ],
      "name": "Transfer",
      "type": "event"
    },
    {
      "inputs": [
        {
          "internalType": "uint256",
          "name": "_nullifier",
          "type": "uint256"
        },
        {
          "internalType": "uint256",
          "name": "_chainId",
          "type": "uint256"
        },
        {
          "internalType": "uint256",
          "name": "_amount",
          "type": "uint256"
        },
        {
          "internalType": "uint256",
          "name": "_gigaRoot",
          "type": "uint256"
        },
        {
          "internalType": "uint256",
          "name": "_localRoot",
          "type": "uint256"
        },
        {
          "internalType": "uint256",
          "name": "_feeFactor",
          "type": "uint256"
        },
        {
          "internalType": "uint256",
          "name": "_priorityFee",
          "type": "uint256"
        },
        {
          "internalType": "uint256",
          "name": "_maxFee",
          "type": "uint256"
        },
        {
          "internalType": "address",
          "name": "_relayer",
          "type": "address"
        },
        {
          "internalType": "address",
          "name": "_recipient",
          "type": "address"
        }
      ],
      "name": "_formatPublicInputs",
      "outputs": [
        {
          "internalType": "bytes32[]",
          "name": "",
          "type": "bytes32[]"
        }
      ],
      "stateMutability": "pure",
      "type": "function"
    },
    {
      "inputs": [
        {
          "internalType": "address",
          "name": "owner",
          "type": "address"
        },
        {
          "internalType": "address",
          "name": "spender",
          "type": "address"
        }
      ],
      "name": "allowance",
      "outputs": [
        {
          "internalType": "uint256",
          "name": "",
          "type": "uint256"
        }
      ],
      "stateMutability": "view",
      "type": "function"
    },
    {
      "inputs": [
        {
          "internalType": "address",
          "name": "spender",
          "type": "address"
        },
        {
          "internalType": "uint256",
          "name": "value",
          "type": "uint256"
        }
      ],
      "name": "approve",
      "outputs": [
        {
          "internalType": "bool",
          "name": "",
          "type": "bool"
        }
      ],
      "stateMutability": "nonpayable",
      "type": "function"
    },
    {
      "inputs": [
        {
          "internalType": "address",
          "name": "account",
          "type": "address"
        }
      ],
      "name": "balanceOf",
      "outputs": [
        {
          "internalType": "uint256",
          "name": "",
          "type": "uint256"
        }
      ],
      "stateMutability": "view",
      "type": "function"
    },
    {
      "inputs": [],
      "name": "bridgeRoot",
      "outputs": [],
      "stateMutability": "view",
      "type": "function"
    },
    {
      "inputs": [
        {
          "internalType": "uint256",
          "name": "_preCommitment",
          "type": "uint256"
        },
        {
          "internalType": "uint256",
          "name": "_amount",
          "type": "uint256"
        }
      ],
      "name": "burn",
      "outputs": [],
      "stateMutability": "nonpayable",
      "type": "function"
    },
    {
      "inputs": [],
      "name": "cachedLocalRoot",
      "outputs": [
        {
          "internalType": "uint256",
          "name": "",
          "type": "uint256"
        }
      ],
      "stateMutability": "view",
      "type": "function"
    },
    {
      "inputs": [],
      "name": "commitTreeData",
      "outputs": [
        {
          "internalType": "uint40",
          "name": "maxIndex",
          "type": "uint40"
        },
        {
          "internalType": "uint40",
          "name": "numberOfLeaves",
          "type": "uint40"
        }
      ],
      "stateMutability": "view",
      "type": "function"
    },
    {
      "inputs": [],
      "name": "decimals",
      "outputs": [
        {
          "internalType": "uint8",
          "name": "",
          "type": "uint8"
        }
      ],
      "stateMutability": "view",
      "type": "function"
    },
    {
      "inputs": [],
      "name": "getLocalRootAndBlock",
      "outputs": [
        {
          "internalType": "uint256",
          "name": "",
          "type": "uint256"
        },
        {
          "internalType": "uint256",
          "name": "",
          "type": "uint256"
        }
      ],
      "stateMutability": "nonpayable",
      "type": "function"
    },
    {
      "inputs": [],
      "name": "gigaRoot",
      "outputs": [
        {
          "internalType": "uint256",
          "name": "",
          "type": "uint256"
        }
      ],
      "stateMutability": "view",
      "type": "function"
    },
    {
      "inputs": [
        {
          "internalType": "uint256",
          "name": "",
          "type": "uint256"
        }
      ],
      "name": "gigaRootHistory",
      "outputs": [
        {
          "internalType": "bool",
          "name": "",
          "type": "bool"
        }
      ],
      "stateMutability": "view",
      "type": "function"
    },
    {
      "inputs": [],
      "name": "gigaRootProvider",
      "outputs": [
        {
          "internalType": "address",
          "name": "",
          "type": "address"
        }
      ],
      "stateMutability": "view",
      "type": "function"
    },
    {
      "inputs": [
        {
          "internalType": "address",
          "name": "_gigaRootProvider",
          "type": "address"
        },
        {
          "internalType": "address",
          "name": "_l1BridgeAdapter",
          "type": "address"
        }
      ],
      "name": "initialize",
      "outputs": [],
      "stateMutability": "nonpayable",
      "type": "function"
    },
    {
      "inputs": [
        {
          "internalType": "uint256",
          "name": "_gigaRoot",
          "type": "uint256"
        }
      ],
      "name": "isValidGigaRoot",
      "outputs": [
        {
          "internalType": "bool",
          "name": "",
          "type": "bool"
        }
      ],
      "stateMutability": "view",
      "type": "function"
    },
    {
      "inputs": [
        {
          "internalType": "uint256",
          "name": "_localRoot",
          "type": "uint256"
        }
      ],
      "name": "isValidLocalRoot",
      "outputs": [
        {
          "internalType": "bool",
          "name": "",
          "type": "bool"
        }
      ],
      "stateMutability": "view",
      "type": "function"
    },
    {
      "inputs": [],
      "name": "l1BridgeAdapter",
      "outputs": [
        {
          "internalType": "address",
          "name": "",
          "type": "address"
        }
      ],
      "stateMutability": "view",
      "type": "function"
    },
    {
      "inputs": [],
      "name": "lastLeafIndex",
      "outputs": [
        {
          "internalType": "uint256",
          "name": "",
          "type": "uint256"
        }
      ],
      "stateMutability": "view",
      "type": "function"
    },
    {
      "inputs": [],
      "name": "localRoot",
      "outputs": [
        {
          "internalType": "uint256",
          "name": "",
          "type": "uint256"
        }
      ],
      "stateMutability": "view",
      "type": "function"
    },
    {
      "inputs": [
        {
          "internalType": "uint256",
          "name": "",
          "type": "uint256"
        }
      ],
      "name": "localRootHistory",
      "outputs": [
        {
          "internalType": "bool",
          "name": "",
          "type": "bool"
        }
      ],
      "stateMutability": "view",
      "type": "function"
    },
    {
      "inputs": [],
      "name": "maxTreeDepth",
      "outputs": [
        {
          "internalType": "uint8",
          "name": "",
          "type": "uint8"
        }
      ],
      "stateMutability": "view",
      "type": "function"
    },
    {
      "inputs": [
        {
          "internalType": "uint256",
          "name": "_nullifier",
          "type": "uint256"
        },
        {
          "internalType": "uint256",
          "name": "_amount",
          "type": "uint256"
        },
        {
          "internalType": "uint256",
          "name": "_gigaRoot",
          "type": "uint256"
        },
        {
          "internalType": "uint256",
          "name": "_localRoot",
          "type": "uint256"
        },
        {
          "internalType": "uint256",
          "name": "_feeFactor",
          "type": "uint256"
        },
        {
          "internalType": "uint256",
          "name": "_priorityFee",
          "type": "uint256"
        },
        {
          "internalType": "uint256",
          "name": "_maxFee",
          "type": "uint256"
        },
        {
          "internalType": "address",
          "name": "_relayer",
          "type": "address"
        },
        {
          "internalType": "address",
          "name": "_recipient",
          "type": "address"
        },
        {
          "internalType": "bytes",
          "name": "_poof",
          "type": "bytes"
        }
      ],
      "name": "mint",
      "outputs": [],
      "stateMutability": "nonpayable",
      "type": "function"
    },
    {
      "inputs": [],
      "name": "name",
      "outputs": [
        {
          "internalType": "string",
          "name": "",
          "type": "string"
        }
      ],
      "stateMutability": "view",
      "type": "function"
    },
    {
      "inputs": [],
      "name": "nativeToken",
      "outputs": [
        {
          "internalType": "address",
          "name": "",
          "type": "address"
        }
      ],
      "stateMutability": "view",
      "type": "function"
    },
    {
      "inputs": [
        {
          "internalType": "uint256",
          "name": "_gigaRoot",
          "type": "uint256"
        }
      ],
      "name": "receiveGigaRoot",
      "outputs": [],
      "stateMutability": "payable",
      "type": "function"
    },
    {
      "inputs": [],
      "name": "storeLocalRootInHistory",
      "outputs": [
        {
          "internalType": "uint256",
          "name": "",
          "type": "uint256"
        }
      ],
      "stateMutability": "nonpayable",
      "type": "function"
    },
    {
      "inputs": [],
      "name": "symbol",
      "outputs": [
        {
          "internalType": "string",
          "name": "",
          "type": "string"
        }
      ],
      "stateMutability": "view",
      "type": "function"
    },
    {
      "inputs": [],
      "name": "totalSupply",
      "outputs": [
        {
          "internalType": "uint256",
          "name": "",
          "type": "uint256"
        }
      ],
      "stateMutability": "view",
      "type": "function"
    },
    {
      "inputs": [
        {
          "internalType": "address",
          "name": "to",
          "type": "address"
        },
        {
          "internalType": "uint256",
          "name": "value",
          "type": "uint256"
        }
      ],
      "name": "transfer",
      "outputs": [
        {
          "internalType": "bool",
          "name": "",
          "type": "bool"
        }
      ],
      "stateMutability": "nonpayable",
      "type": "function"
    },
    {
      "inputs": [
        {
          "internalType": "address",
          "name": "from",
          "type": "address"
        },
        {
          "internalType": "address",
          "name": "to",
          "type": "address"
        },
        {
          "internalType": "uint256",
          "name": "value",
          "type": "uint256"
        }
      ],
      "name": "transferFrom",
      "outputs": [
        {
          "internalType": "bool",
          "name": "",
          "type": "bool"
        }
      ],
      "stateMutability": "nonpayable",
      "type": "function"
    },
    {
      "inputs": [],
      "name": "withdrawVerifier",
      "outputs": [
        {
          "internalType": "address",
          "name": "",
          "type": "address"
        }
      ],
      "stateMutability": "view",
      "type": "function"
    }
  ],
  "bytecode": "0x608060405234801561000f575f5ffd5b50604051611c09380380611c0983398101604081905261002e9161028e565b8484848484600361003f83826103af565b50600461004c82826103af565b50506008805460ff191660ff8616908117909155600f80546001600160a01b0319166001600160a01b038616179055604051631844db3b60e21b815260066004820152602481019190915273__$5fc44c2a7799c6ceb48acabb21e98687d0$__91506361136cec906044015f6040518083038186803b1580156100cd575f5ffd5b505af41580156100df573d5f5f3e3d5ffd5b5050601180546001600160a01b0385166001600160a01b0319918216179091556005805490911633179055506101159050610123565b505050505050505050610480565b5f8061012d610150565b60098190555f818152600c60205260409020805460ff1916600117905592915050565b6008546040516339ebe6e360e01b81526006600482015260ff90911660248201525f9073__$5fc44c2a7799c6ceb48acabb21e98687d0$__906339ebe6e390604401602060405180830381865af41580156101ad573d5f5f3e3d5ffd5b505050506040513d601f19601f820116820180604052508101906101d19190610469565b905090565b80516001600160a01b03811681146101ec575f5ffd5b919050565b634e487b7160e01b5f52604160045260245ffd5b5f82601f830112610214575f5ffd5b81516001600160401b0381111561022d5761022d6101f1565b604051601f8201601f19908116603f011681016001600160401b038111828210171561025b5761025b6101f1565b604052818152838201602001851015610272575f5ffd5b8160208501602083015e5f918101602001919091529392505050565b5f5f5f5f5f60a086880312156102a2575f5ffd5b855160ff811681146102b2575f5ffd5b94506102c0602087016101d6565b93506102ce604087016101d6565b60608701519093506001600160401b038111156102e9575f5ffd5b6102f588828901610205565b608088015190935090506001600160401b03811115610312575f5ffd5b61031e88828901610205565b9150509295509295909350565b600181811c9082168061033f57607f821691505b60208210810361035d57634e487b7160e01b5f52602260045260245ffd5b50919050565b601f8211156103aa57805f5260205f20601f840160051c810160208510156103885750805b601f840160051c820191505b818110156103a7575f8155600101610394565b50505b505050565b81516001600160401b038111156103c8576103c86101f1565b6103dc816103d6845461032b565b84610363565b6020601f82116001811461040e575f83156103f75750848201515b5f19600385901b1c1916600184901b1784556103a7565b5f84815260208120601f198516915b8281101561043d578785015182556020948501946001909201910161041d565b508482101561045a57868401515f19600387901b60f8161c191681555b50505050600190811b01905550565b5f60208284031215610479575f5ffd5b5051919050565b61177c8061048d5f395ff3fe6080604052600436106101d0575f3560e01c80636b95cb05116100fd578063a9059cbb11610092578063dd62ed3e11610062578063dd62ed3e1461057f578063df54fe50146105c3578063e1758bd8146105d8578063e358270d146105f7575f5ffd5b8063a9059cbb146104ff578063ae5582fa1461051e578063b390c0ab14610547578063d3f9fa5114610566575f5ffd5b8063882f624a116100cd578063882f624a1461048157806395d89b41146104a05780639d1453e5146104b4578063a50410a9146104e0575f5ffd5b80636b95cb051461040557806370a0823114610419578063828f227a1461044d578063864eb16414610462575f5ffd5b806327e74ca311610173578063313ce56711610143578063313ce56714610360578063485cc9551461038157806357c423e1146103a057806367f8da3a146103ce575f5ffd5b806327e74ca3146102f657806328b0c0aa1461030957806329c50fa91461031d5780632ffe1f2914610332575f5ffd5b806318160ddd116101ae57806318160ddd146102435780631ec84e8e1461026157806323b872dd1461028f57806323f364c5146102ae575f5ffd5b806306fdde03146101d4578063095ea7b3146101fe578063177a0c2c1461022d575b5f5ffd5b3480156101df575f5ffd5b506101e8610625565b6040516101f591906112f5565b60405180910390f35b348015610209575f5ffd5b5061021d610218366004611329565b6106b5565b60405190151581526020016101f5565b348015610238575f5ffd5b506102416106ce565b005b34801561024e575f5ffd5b506002545b6040519081526020016101f5565b34801561026c575f5ffd5b5061021d61027b366004611351565b5f908152600c602052604090205460ff1690565b34801561029a575f5ffd5b5061021d6102a9366004611368565b6106d9565b3480156102b9575f5ffd5b506006546102d89064ffffffffff808216916501000000000090041682565b6040805164ffffffffff9384168152929091166020830152016101f5565b610241610304366004611351565b6106fc565b348015610314575f5ffd5b50610253610778565b348015610328575f5ffd5b50610253600a5481565b34801561033d575f5ffd5b5061021d61034c366004611351565b600c6020525f908152604090205460ff1681565b34801561036b575f5ffd5b5060065b60405160ff90911681526020016101f5565b34801561038c575f5ffd5b5061024161039b3660046113a2565b610817565b3480156103ab575f5ffd5b5061021d6103ba366004611351565b600b6020525f908152604090205460ff1681565b3480156103d9575f5ffd5b50600e546103ed906001600160a01b031681565b6040516001600160a01b0390911681526020016101f5565b348015610410575f5ffd5b50610253610969565b348015610424575f5ffd5b506102536104333660046113d3565b6001600160a01b03165f9081526020819052604090205490565b348015610458575f5ffd5b5061025360095481565b34801561046d575f5ffd5b50600f546103ed906001600160a01b031681565b34801561048c575f5ffd5b50600d546103ed906001600160a01b031681565b3480156104ab575f5ffd5b506101e8610996565b3480156104bf575f5ffd5b506104d36104ce3660046113ec565b6109a5565b6040516101f591906114a2565b3480156104eb575f5ffd5b506102416104fa3660046114c8565b610ae1565b34801561050a575f5ffd5b5061021d610519366004611329565b610d67565b348015610529575f5ffd5b50610532610d74565b604080519283526020830191909152016101f5565b348015610552575f5ffd5b506102416105613660046115de565b610d89565b348015610571575f5ffd5b5060085461036f9060ff1681565b34801561058a575f5ffd5b506102536105993660046113a2565b6001600160a01b039182165f90815260016020908152604080832093909416825291909152205490565b3480156105ce575f5ffd5b5061025360105481565b3480156105e3575f5ffd5b506011546103ed906001600160a01b031681565b348015610602575f5ffd5b5061021d610611366004611351565b5f908152600b602052604090205460ff1690565b606060038054610634906115fe565b80601f0160208091040260200160405190810160405280929190818152602001828054610660906115fe565b80156106ab5780601f10610682576101008083540402835291602001916106ab565b820191905f5260205f20905b81548152906001019060200180831161068e57829003601f168201915b5050505050905090565b5f336106c2818585610f14565b60019150505b92915050565b6106d6610778565b50565b5f336106e6858285610f26565b6106f1858585610fbb565b506001949350505050565b600e546001600160a01b0316331461075b5760405162461bcd60e51b815260206004820152601460248201527f4e6f742067696761526f6f7450726f766964657200000000000000000000000060448201526064015b60405180910390fd5b5f818152600b60205260409020805460ff19166001179055600a55565b6008546040517f39ebe6e30000000000000000000000000000000000000000000000000000000081526006600482015260ff90911660248201525f9073__$5fc44c2a7799c6ceb48acabb21e98687d0$__906339ebe6e390604401602060405180830381865af41580156107ee573d5f5f3e3d5ffd5b505050506040513d601f19601f820116820180604052508101906108129190611636565b905090565b6005546001600160a01b031633146108715760405162461bcd60e51b815260206004820152601060248201527f4e6f7420746865206465706c6f796572000000000000000000000000000000006044820152606401610752565b600e546001600160a01b0316156108ca5760405162461bcd60e51b815260206004820152601f60248201527f67696761526f6f7450726f766964657220697320616c726561647920736574006044820152606401610752565b600d546001600160a01b0316156109235760405162461bcd60e51b815260206004820152601e60248201527f6c314272696467654164617074657220697320616c72656164792073657400006044820152606401610752565b600e80546001600160a01b039384167fffffffffffffffffffffffff000000000000000000000000000000000000000091821617909155600d8054929093169116179055565b5f5f610973610778565b60098190555f818152600c60205260409020805460ff1916600117905592915050565b606060048054610634906115fe565b60408051600a80825261016082019092526060915f919060208201610140803683370190505060408051610100810182528e815260208082018f90528183018e9052606082018d9052608082018c905260a082018b905260c082018a905260e0820189905282518084019093526001600160a01b0380891684528716908301529192505f5b6008811015610a7157828160088110610a4557610a4561164d565b60200201515f1b848281518110610a5e57610a5e61164d565b6020908102919091010152600101610a2a565b5060085f5b6002811015610acd57828160028110610a9157610a9161164d565b60200201516001600160a01b031685610aaa8385611675565b81518110610aba57610aba61164d565b6020908102919091010152600101610a76565b50929e9d5050505050505050505050505050565b5f888152600b602052604090205460ff16610b3e5760405162461bcd60e51b815260206004820152601160248201527f5f67696761526f6f7420756e6b6e6f776e0000000000000000000000000000006044820152606401610752565b5f878152600c602052604090205460ff16610b9b5760405162461bcd60e51b815260206004820152601260248201527f5f6c6f63616c526f6f7420756e6b6e6f776e00000000000000000000000000006044820152606401610752565b5f610bae8b468c8c8c8c8c8c8c8c6109a5565b600f546040517fea50d0e40000000000000000000000000000000000000000000000000000000081529192506001600160a01b03169063ea50d0e490610bfa9085908590600401611688565b602060405180830381865afa158015610c15573d5f5f3e3d5ffd5b505050506040513d601f19601f82011682018060405250810190610c3991906116b5565b610c855760405162461bcd60e51b815260206004820152600d60248201527f696e76616c69642070726f6f66000000000000000000000000000000000000006044820152606401610752565b8615610d50575f610c968748611675565b610ca090896116d4565b905085811115610d185760405162461bcd60e51b815260206004820152602260248201527f5f72656c61796572466565206973206c6172676572207468616e205f6d61784660448201527f65650000000000000000000000000000000000000000000000000000000000006064820152608401610752565b5f196001600160a01b03861601610d2d573394505b610d378582611018565b610d4a84610d45838e6116eb565b611018565b50610d5a565b610d5a838b611018565b5050505050505050505050565b5f336106c2818585610fbb565b5f5f610d7e610969565b505060095491439150565b610d933382611050565b6040805180820182528381526020810183905290517f561558fe0000000000000000000000000000000000000000000000000000000081525f9173__$75f79a42d9bcbdbb69ad79ebd80f556f39$__9163561558fe91610df5916004016116fe565b602060405180830381865af4158015610e10573d5f5f3e3d5ffd5b505050506040513d601f19601f82011682018060405250810190610e349190611636565b6040517f0224ef5e000000000000000000000000000000000000000000000000000000008152600660048201526024810182905290915073__$5fc44c2a7799c6ceb48acabb21e98687d0$__90630224ef5e906044015f6040518083038186803b158015610ea0575f5ffd5b505af4158015610eb2573d5f5f3e3d5ffd5b50505050807f5af801e983cfd842de8b0797a2d6077db3ac2dea16571e0c7f5080291ca1b93483601054604051610ef3929190918252602082015260400190565b60405180910390a260108054905f610f0a8361172e565b9190505550505050565b610f218383836001611084565b505050565b6001600160a01b038381165f908152600160209081526040808320938616835292905220545f19811015610fb55781811015610fa7576040517ffb8f41b20000000000000000000000000000000000000000000000000000000081526001600160a01b03841660048201526024810182905260448101839052606401610752565b610fb584848484035f611084565b50505050565b6001600160a01b038316610fe457604051634b637e8f60e11b81525f6004820152602401610752565b6001600160a01b03821661100d5760405163ec442f0560e01b81525f6004820152602401610752565b610f21838383611188565b6001600160a01b0382166110415760405163ec442f0560e01b81525f6004820152602401610752565b61104c5f8383611188565b5050565b6001600160a01b03821661107957604051634b637e8f60e11b81525f6004820152602401610752565b61104c825f83611188565b6001600160a01b0384166110c6576040517fe602df050000000000000000000000000000000000000000000000000000000081525f6004820152602401610752565b6001600160a01b038316611108576040517f94280d620000000000000000000000000000000000000000000000000000000081525f6004820152602401610752565b6001600160a01b038085165f9081526001602090815260408083209387168352929052208290558015610fb557826001600160a01b0316846001600160a01b03167f8c5be1e5ebec7d5bd14f71427d1e84f3dd0314c0f7b2291e5b200ac8c7c3b9258460405161117a91815260200190565b60405180910390a350505050565b6001600160a01b0383166111b2578060025f8282546111a79190611675565b9091555061123b9050565b6001600160a01b0383165f908152602081905260409020548181101561121d576040517fe450d38c0000000000000000000000000000000000000000000000000000000081526001600160a01b03851660048201526024810182905260448101839052606401610752565b6001600160a01b0384165f9081526020819052604090209082900390555b6001600160a01b03821661125757600280548290039055611275565b6001600160a01b0382165f9081526020819052604090208054820190555b816001600160a01b0316836001600160a01b03167fddf252ad1be2c89b69c2b068fc378daa952ba7f163c4a11628f55a4df523b3ef836040516112ba91815260200190565b60405180910390a3505050565b5f81518084528060208401602086015e5f602082860101526020601f19601f83011685010191505092915050565b602081525f61130760208301846112c7565b9392505050565b80356001600160a01b0381168114611324575f5ffd5b919050565b5f5f6040838503121561133a575f5ffd5b6113438361130e565b946020939093013593505050565b5f60208284031215611361575f5ffd5b5035919050565b5f5f5f6060848603121561137a575f5ffd5b6113838461130e565b92506113916020850161130e565b929592945050506040919091013590565b5f5f604083850312156113b3575f5ffd5b6113bc8361130e565b91506113ca6020840161130e565b90509250929050565b5f602082840312156113e3575f5ffd5b6113078261130e565b5f5f5f5f5f5f5f5f5f5f6101408b8d031215611406575f5ffd5b8a35995060208b0135985060408b0135975060608b0135965060808b0135955060a08b0135945060c08b0135935060e08b013592506114486101008c0161130e565b91506114576101208c0161130e565b90509295989b9194979a5092959850565b5f8151808452602084019350602083015f5b8281101561149857815186526020958601959091019060010161147a565b5093949350505050565b602081525f6113076020830184611468565b634e487b7160e01b5f52604160045260245ffd5b5f5f5f5f5f5f5f5f5f5f6101408b8d0312156114e2575f5ffd5b8a35995060208b0135985060408b0135975060608b0135965060808b0135955060a08b0135945060c08b0135935061151c60e08c0161130e565b925061152b6101008c0161130e565b91506101208b013567ffffffffffffffff811115611547575f5ffd5b8b01601f81018d13611557575f5ffd5b803567ffffffffffffffff811115611571576115716114b4565b604051601f8201601f19908116603f0116810167ffffffffffffffff811182821017156115a0576115a06114b4565b6040528181528282016020018f10156115b7575f5ffd5b816020840160208301375f602083830101528093505050509295989b9194979a5092959850565b5f5f604083850312156115ef575f5ffd5b50508035926020909101359150565b600181811c9082168061161257607f821691505b60208210810361163057634e487b7160e01b5f52602260045260245ffd5b50919050565b5f60208284031215611646575f5ffd5b5051919050565b634e487b7160e01b5f52603260045260245ffd5b634e487b7160e01b5f52601160045260245ffd5b808201808211156106c8576106c8611661565b604081525f61169a60408301856112c7565b82810360208401526116ac8185611468565b95945050505050565b5f602082840312156116c5575f5ffd5b81518015158114611307575f5ffd5b80820281158282048414176106c8576106c8611661565b818103818111156106c8576106c8611661565b6040810181835f5b6002811015611725578151835260209283019290910190600101611706565b50505092915050565b5f6001820161173f5761173f611661565b506001019056fea2646970667358221220d538458493a36812fa8b2b22d59fdda40f71c2edee4d0fe45492e9e5d87a959864736f6c634300081d0033",
  "linkReferences": {
    "@zk-kit/lazy-imt.sol/LazyIMT.sol": {
      "LazyIMT": [
        {
          "length": 20,
          "start": 153
        },
        {
          "length": 20,
          "start": 373
        },
        {
          "length": 20,
          "start": 3139
        },
        {
          "length": 20,
          "start": 4858
        }
      ]
    },
    "poseidon-solidity/PoseidonT3.sol": {
      "PoseidonT3": [
        {
          "length": 20,
          "start": 4700
        }
      ]
    }
  },
  "deployedLinkReferences": {
    "@zk-kit/lazy-imt.sol/LazyIMT.sol": {
      "LazyIMT": [
        {
          "length": 20,
          "start": 1974
        },
        {
          "length": 20,
          "start": 3693
        }
      ]
    },
    "poseidon-solidity/PoseidonT3.sol": {
      "PoseidonT3": [
        {
          "length": 20,
          "start": 3535
        }
      ]
    }
  }
}