{
  "_format": "hh-sol-artifact-1",
  "contractName": "L2ScrollBridgeAdapter",
  "sourceName": "contracts/evm/adapters/L2ScrollBridgeAdapter.sol",
  "abi": [
    {
      "inputs": [
        {
          "internalType": "address",
          "name": "_l2ScrollMessenger",
          "type": "address"
        },
        {
          "internalType": "address",
          "name": "_l1ScrollBridgeAdapter",
          "type": "address"
        },
        {
          "internalType": "address",
          "name": "_l2WarpToad",
          "type": "address"
        }
      ],
      "stateMutability": "nonpayable",
      "type": "constructor"
    },
    {
      "anonymous": false,
      "inputs": [
        {
          "indexed": true,
          "internalType": "uint256",
          "name": "gigaRoot",
          "type": "uint256"
        }
      ],
      "name": "NewGigaRoot",
      "type": "event"
    },
    {
      "anonymous": false,
      "inputs": [
        {
          "indexed": true,
          "internalType": "uint256",
          "name": "localRoot",
          "type": "uint256"
        }
      ],
      "name": "SentLocalRootToL1",
      "type": "event"
    },
    {
      "inputs": [],
      "name": "gigaRoot",
      "outputs": [
        {
          "internalType": "uint256",
          "name": "",
          "type": "uint256"
        }
      ],
      "stateMutability": "view",
      "type": "function"
    },
    {
      "inputs": [
        {
          "internalType": "uint256",
          "name": "_gigaRoot",
          "type": "uint256"
        }
      ],
      "name": "receiveGigaRoot",
      "outputs": [],
      "stateMutability": "payable",
      "type": "function"
    },
    {
      "inputs": [
        {
          "internalType": "address",
          "name": "_gigaRootRecipient",
          "type": "address"
        }
      ],
      "name": "sendGigaRoot",
      "outputs": [],
      "stateMutability": "payable",
      "type": "function"
    },
    {
      "inputs": [
        {
          "internalType": "uint256",
          "name": "_gasLimit",
          "type": "uint256"
        }
      ],
      "name": "sentLocalRootToL1",
      "outputs": [],
      "stateMutability": "nonpayable",
      "type": "function"
    },
    {
      "inputs": [],
      "name": "sentLocalRootToL1",
      "outputs": [],
      "stateMutability": "nonpayable",
      "type": "function"
    }
  ],
  "bytecode": "0x6080604052348015600e575f5ffd5b506040516107c23803806107c2833981016040819052602b916084565b600180546001600160a01b03199081166001600160a01b03948516179091556002805482169484169490941790935560038054909316911617905560bd565b80516001600160a01b0381168114607f575f5ffd5b919050565b5f5f5f606084860312156095575f5ffd5b609c84606a565b925060a860208501606a565b915060b460408501606a565b90509250925092565b6106f8806100ca5f395ff3fe608060405260043610610058575f3560e01c80633df6effa116100415780633df6effa14610097578063ab0f4748146100aa578063e6f9ed0d146100c9575f5ffd5b806327e74ca31461005c57806329c50fa914610071575b5f5ffd5b61006f61006a3660046105d2565b6100dd565b005b34801561007c575f5ffd5b506100855f5481565b60405190815260200160405180910390f35b61006f6100a5366004610600565b61029f565b3480156100b5575f5ffd5b5061006f6100c43660046105d2565b610313565b3480156100d4575f5ffd5b5061006f610470565b6002546001600160a01b031633146101625760405162461bcd60e51b815260206004820152602860248201527f66756e6374696f6e206e6f742063616c6c6564206279206c315363726f6c6c4d60448201527f657373656e67657200000000000000000000000000000000000000000000000060648201526084015b60405180910390fd5b60025f9054906101000a90046001600160a01b03166001600160a01b0316636e296e456040518163ffffffff1660e01b8152600401602060405180830381865afa1580156101b2573d5f5f3e3d5ffd5b505050506040513d601f19601f820116820180604052508101906101d69190610622565b6001546001600160a01b039081169116146102595760405162461bcd60e51b815260206004820152603b60248201527f636f6e7472616374206d6573736167696e672066726f6d204c31206973206e6f60448201527f7420746865204c315363726f6c6c4272696467654164617074657200000000006064820152608401610159565b5f819055600354610272906001600160a01b031661029f565b60405181907fd65331a373ddf7ebeecf120656bb7dae84cf462b334afeb99662ef16bc2f3a52905f90a250565b5f546040517f27e74ca300000000000000000000000000000000000000000000000000000000815260048101919091526001600160a01b038216906327e74ca3906024015f604051808303815f87803b1580156102fa575f5ffd5b505af115801561030c573d5f5f3e3d5ffd5b5050505050565b6003546040805163572ac17d60e11b815281515f9384936001600160a01b039091169263ae5582fa9260048083019392829003018187875af115801561035b573d5f5f3e3d5ffd5b505050506040513d601f19601f8201168201806040525081019061037f919061063d565b6002546001546040805160248101869052604480820186905282518083039091018152606490910182526020810180517bffffffffffffffffffffffffffffffffffffffffffffffffffffffff1663010bb87160e01b1790529051635f7b157760e01b81529496509294506001600160a01b0391821693635f7b1577935f936104139316918491908a90339060040161065f565b5f604051808303818588803b15801561042a575f5ffd5b505af115801561043c573d5f5f3e3d5ffd5b50506040518593507ff95af4c293cd9374d065f17ae088bd210637f4c1bf6eb1a262d3575194695d8692505f9150a2505050565b6003546040805163572ac17d60e11b815281515f9384936001600160a01b039091169263ae5582fa9260048083019392829003018187875af11580156104b8573d5f5f3e3d5ffd5b505050506040513d601f19601f820116820180604052508101906104dc919061063d565b6002546001546040805160248101869052604480820186905282518083039091018152606490910182526020810180517bffffffffffffffffffffffffffffffffffffffffffffffffffffffff1663010bb87160e01b1790529051635f7b157760e01b8152949650929450621e8480936001600160a01b0392831693635f7b1577935f936105759391169184918890339060040161065f565b5f604051808303818588803b15801561058c575f5ffd5b505af115801561059e573d5f5f3e3d5ffd5b50506040518693507ff95af4c293cd9374d065f17ae088bd210637f4c1bf6eb1a262d3575194695d8692505f9150a2505050565b5f602082840312156105e2575f5ffd5b5035919050565b6001600160a01b03811681146105fd575f5ffd5b50565b5f60208284031215610610575f5ffd5b813561061b816105e9565b9392505050565b5f60208284031215610632575f5ffd5b815161061b816105e9565b5f5f6040838503121561064e575f5ffd5b505080516020909101519092909150565b6001600160a01b038616815284602082015260a060408201525f84518060a0840152806020870160c085015e5f60c0828501015260c0601f19601f8301168401019150508360608301526001600160a01b0383166080830152969550505050505056fea2646970667358221220bb6b1171eda7fb07a9b3fdb6ba0e241b8eaaf239649de336a07c3d314e6489e964736f6c634300081d0033",
  "linkReferences": {},
  "deployedLinkReferences": {}
}