{
  "_format": "hh-sol-artifact-1",
  "contractName": "L1AztecBridgeAdapter",
  "sourceName": "contracts/evm/adapters/L1AztecBridgeAdapter.sol",
  "abi": [
    {
      "inputs": [],
      "stateMutability": "nonpayable",
      "type": "constructor"
    },
    {
      "anonymous": false,
      "inputs": [
        {
          "indexed": true,
          "internalType": "bytes32",
          "name": "newGigaRoot",
          "type": "bytes32"
        },
        {
          "indexed": false,
          "internalType": "bytes32",
          "name": "key",
          "type": "bytes32"
        },
        {
          "indexed": false,
          "internalType": "uint256",
          "name": "index",
          "type": "uint256"
        }
      ],
      "name": "NewGigaRootSentToAztec",
      "type": "event"
    },
    {
      "anonymous": false,
      "inputs": [
        {
          "indexed": true,
          "internalType": "uint256",
          "name": "newL2Root",
          "type": "uint256"
        },
        {
          "indexed": false,
          "internalType": "uint256",
          "name": "l2Block",
          "type": "uint256"
        }
      ],
      "name": "ReceivedNewL2Root",
      "type": "event"
    },
    {
      "inputs": [
        {
          "internalType": "bytes32",
          "name": "_newL2Root",
          "type": "bytes32"
        },
        {
          "internalType": "uint256",
          "name": "_bridgedL2BlockNumber",
          "type": "uint256"
        }
      ],
      "name": "getContentHash",
      "outputs": [
        {
          "internalType": "bytes32",
          "name": "",
          "type": "bytes32"
        }
      ],
      "stateMutability": "pure",
      "type": "function"
    },
    {
      "inputs": [],
      "name": "getLocalRootAndBlock",
      "outputs": [
        {
          "internalType": "uint256",
          "name": "",
          "type": "uint256"
        },
        {
          "internalType": "uint256",
          "name": "",
          "type": "uint256"
        }
      ],
      "stateMutability": "view",
      "type": "function"
    },
    {
      "inputs": [
        {
          "internalType": "bytes32",
          "name": "_newL2Root",
          "type": "bytes32"
        },
        {
          "internalType": "uint256",
          "name": "_bridgedL2BlockNumber",
          "type": "uint256"
        },
        {
          "internalType": "uint256",
          "name": "_witnessL2BlockNumber",
          "type": "uint256"
        },
        {
          "internalType": "uint256",
          "name": "_leafIndex",
          "type": "uint256"
        },
        {
          "internalType": "bytes32[]",
          "name": "_path",
          "type": "bytes32[]"
        }
      ],
      "name": "getNewRootFromL2",
      "outputs": [],
      "stateMutability": "nonpayable",
      "type": "function"
    },
    {
      "inputs": [],
      "name": "gigaBridge",
      "outputs": [
        {
          "internalType": "address",
          "name": "",
          "type": "address"
        }
      ],
      "stateMutability": "view",
      "type": "function"
    },
    {
      "inputs": [],
      "name": "inbox",
      "outputs": [
        {
          "internalType": "contract IInbox",
          "name": "",
          "type": "address"
        }
      ],
      "stateMutability": "view",
      "type": "function"
    },
    {
      "inputs": [
        {
          "internalType": "address",
          "name": "_registry",
          "type": "address"
        },
        {
          "internalType": "bytes32",
          "name": "_l2AztecBridgeAdapter",
          "type": "bytes32"
        },
        {
          "internalType": "address",
          "name": "_gigaRootBridge",
          "type": "address"
        }
      ],
      "name": "initialize",
      "outputs": [],
      "stateMutability": "nonpayable",
      "type": "function"
    },
    {
      "inputs": [],
      "name": "l2AztecBridgeAdapter",
      "outputs": [
        {
          "internalType": "bytes32",
          "name": "",
          "type": "bytes32"
        }
      ],
      "stateMutability": "view",
      "type": "function"
    },
    {
      "inputs": [],
      "name": "mostRecentL2Root",
      "outputs": [
        {
          "internalType": "uint256",
          "name": "",
          "type": "uint256"
        }
      ],
      "stateMutability": "view",
      "type": "function"
    },
    {
      "inputs": [],
      "name": "mostRecentL2RootBlockNumber",
      "outputs": [
        {
          "internalType": "uint256",
          "name": "",
          "type": "uint256"
        }
      ],
      "stateMutability": "view",
      "type": "function"
    },
    {
      "inputs": [],
      "name": "outbox",
      "outputs": [
        {
          "internalType": "contract IOutbox",
          "name": "",
          "type": "address"
        }
      ],
      "stateMutability": "view",
      "type": "function"
    },
    {
      "inputs": [
        {
          "internalType": "uint256",
          "name": "_newGigaRoot",
          "type": "uint256"
        }
      ],
      "name": "receiveGigaRoot",
      "outputs": [],
      "stateMutability": "payable",
      "type": "function"
    },
    {
      "inputs": [],
      "name": "rollup",
      "outputs": [
        {
          "internalType": "contract IRollup",
          "name": "",
          "type": "address"
        }
      ],
      "stateMutability": "view",
      "type": "function"
    },
    {
      "inputs": [],
      "name": "rollupVersion",
      "outputs": [
        {
          "internalType": "uint256",
          "name": "",
          "type": "uint256"
        }
      ],
      "stateMutability": "view",
      "type": "function"
    }
  ],
  "bytecode": "0x60806040526008805460ff60a01b19169055348015601b575f5ffd5b50600880546001600160a01b03191633179055610d6d8061003b5f395ff3fe6080604052600436106100ce575f3560e01c8063b08938871161007c578063d0623e6d11610057578063d0623e6d146101f6578063d26b3e6e1461020a578063df37416514610229578063fb0e722b14610248575f5ffd5b8063b08938871461018b578063cb23bcb5146101a0578063ce11e6ab146101d7575f5ffd5b806395e2c676116100ac57806395e2c6761461012e578063ac0437101461014d578063ae5582fa14610162575f5ffd5b806327e74ca3146100d25780632f4eb62d146100e75780634bd1a1c61461010f575b5f5ffd5b6100e56100e0366004610ab8565b610267565b005b3480156100f2575f5ffd5b506100fc60015481565b6040519081526020015b60405180910390f35b34801561011a575f5ffd5b506100e5610129366004610acf565b6102d2565b348015610139575f5ffd5b506100fc610148366004610b65565b6103ee565b348015610158575f5ffd5b506100fc60025481565b34801561016d575f5ffd5b50610176610429565b60408051928352602083019190915201610106565b348015610196575f5ffd5b506100fc60065481565b3480156101ab575f5ffd5b506003546101bf906001600160a01b031681565b6040516001600160a01b039091168152602001610106565b3480156101e2575f5ffd5b506004546101bf906001600160a01b031681565b348015610201575f5ffd5b506100fc5f5481565b348015610215575f5ffd5b506100e5610224366004610b99565b610571565b348015610234575f5ffd5b506007546101bf906001600160a01b031681565b348015610253575f5ffd5b506005546101bf906001600160a01b031681565b6007546001600160a01b031633146102c65760405162461bcd60e51b815260206004820152600e60248201527f4e6f74206769676142726964676500000000000000000000000000000000000060448201526064015b60405180910390fd5b6102cf816108f8565b50565b5f6102dd87876103ee565b6040805160a0810182525f54606082019081526006546080830152815281518083018352308152466020808301919091528201528082018390526004805492517f7fb3496700000000000000000000000000000000000000000000000000000000815293945090926001600160a01b0390921691637fb349679161036b9185918b918b918b918b9101610bd8565b5f604051808303815f87803b158015610382575f5ffd5b505af1158015610394573d5f5f3e3d5ffd5b50506040518981528a92508291507f475b5c7799f48003a7afb7bac86d23c4d2cfd499581b90657c981e4616318a2c9060200160405180910390a287600254116103e357600181905560028890555b505050505050505050565b5f610422838360405160200161040e929190918252602082015260400190565b604051602081830303815290604052610a1d565b9392505050565b5f5f5f600154116104c85760405162461bcd60e51b815260206004820152605060248201527f416e204c3220726f6f74206861736e277420796574206265656e20627269646760448201527f656420746f207468697320636f6e74726163742e2072656672657368526f6f7460648201527f206d7573742062652063616c6c65642e00000000000000000000000000000000608482015260a4016102bd565b5f600254116105655760405162461bcd60e51b815260206004820152605060248201527f416e204c3220726f6f74206861736e277420796574206265656e20627269646760448201527f656420746f207468697320636f6e74726163742e2072656672657368526f6f7460648201527f206d7573742062652063616c6c65642e00000000000000000000000000000000608482015260a4016102bd565b50506001546002549091565b6008546001600160a01b031633146105cb5760405162461bcd60e51b815260206004820152601060248201527f4e6f7420746865206465706c6f7965720000000000000000000000000000000060448201526064016102bd565b600854600160a01b900460ff16156106255760405162461bcd60e51b815260206004820152601560248201527f63616e7420696e697469616c697a65207477696365000000000000000000000060448201526064016102bd565b600880547fffffffffffffffffffffff00ffffffffffffffffffffffffffffffffffffffff16600160a01b1790555f829055604080517f971b0e6b00000000000000000000000000000000000000000000000000000000815290516001600160a01b0385169163971b0e6b9160048083019260209291908290030181865afa1580156106b3573d5f5f3e3d5ffd5b505050506040513d601f19601f820116820180604052508101906106d79190610c7d565b6003805473ffffffffffffffffffffffffffffffffffffffff19166001600160a01b03929092169182179055604080517fa32fbb7b000000000000000000000000000000000000000000000000000000008152905163a32fbb7b916004808201926020929091908290030181865afa158015610755573d5f5f3e3d5ffd5b505050506040513d601f19601f820116820180604052508101906107799190610c7d565b6004805473ffffffffffffffffffffffffffffffffffffffff19166001600160a01b03928316178155600354604080517f368c093c0000000000000000000000000000000000000000000000000000000081529051919093169263368c093c92818101926020929091908290030181865afa1580156107fa573d5f5f3e3d5ffd5b505050506040513d601f19601f8201168201806040525081019061081e9190610c7d565b6005805473ffffffffffffffffffffffffffffffffffffffff19166001600160a01b03928316179055600354604080517f0d8e6e2c00000000000000000000000000000000000000000000000000000000815290519190921691630d8e6e2c9160048083019260209291908290030181865afa1580156108a0573d5f5f3e3d5ffd5b505050506040513d601f19601f820116820180604052508101906108c49190610c98565b6006556007805473ffffffffffffffffffffffffffffffffffffffff19166001600160a01b03929092169190911790555050565b6040805180820182525f805482526006546020830190815260055493517f1f6d510b0000000000000000000000000000000000000000000000000000000081528351600482015290516024820152604481018590527e1dc7b0244cb71a4609d526300ba6771064bd046848666f7bfe577053d630c56064820181905292938593929182916001600160a01b031690631f6d510b9060840160408051808303815f875af11580156109aa573d5f5f3e3d5ffd5b505050506040513d601f19601f820116820180604052508101906109ce9190610caf565b91509150837f64986607a90a031414cac90eb78251d467a1219888fd4297669057a9718533458383604051610a0d929190918252602082015260400190565b60405180910390a2505050505050565b6040805160018082528183019092525f9160208201818036833701905050600283604051610a4b9190610ce8565b602060405180830381855afa158015610a66573d5f5f3e3d5ffd5b5050506040513d601f19601f82011682018060405250810190610a899190610c98565b604051602001610a9a929190610cf3565b604051602081830303815290604052610ab290610d11565b92915050565b5f60208284031215610ac8575f5ffd5b5035919050565b5f5f5f5f5f5f60a08789031215610ae4575f5ffd5b86359550602087013594506040870135935060608701359250608087013567ffffffffffffffff811115610b16575f5ffd5b8701601f81018913610b26575f5ffd5b803567ffffffffffffffff811115610b3c575f5ffd5b8960208260051b8401011115610b50575f5ffd5b60208201935080925050509295509295509295565b5f5f60408385031215610b76575f5ffd5b50508035926020909101359150565b6001600160a01b03811681146102cf575f5ffd5b5f5f5f60608486031215610bab575f5ffd5b8335610bb681610b85565b9250602084013591506040840135610bcd81610b85565b809150509250925092565b610bed81875180518252602090810151910152565b5f60208701516001600160a01b0381511660408401526020810151606084015250604087015160808301528560a08301528460c083015261010060e0830152826101008301527f07ffffffffffffffffffffffffffffffffffffffffffffffffffffffffffffff831115610c5f575f5ffd5b8260051b808561012085013791909101610120019695505050505050565b5f60208284031215610c8d575f5ffd5b815161042281610b85565b5f60208284031215610ca8575f5ffd5b5051919050565b5f5f60408385031215610cc0575f5ffd5b505080516020909101519092909150565b5f81518060208401855e5f93019283525090919050565b5f6104228284610cd1565b5f610cfe8285610cd1565b60ff199390931683525050601f01919050565b80516020808301519190811015610d31575f198160200360031b1b821691505b5091905056fea264697066735822122040d137d699535276eac7cacaa0355f4289d17f35c5c5958a44872deae309b45464736f6c634300081d0033",
  "linkReferences": {},
  "deployedLinkReferences": {}
}