{
  "_format": "hh-sol-artifact-1",
  "contractName": "L1WarpToad",
  "sourceName": "contracts/evm/warptoad/L1WarpToad.sol",
  "abi": [
    {
      "inputs": [
        {
          "internalType": "uint8",
          "name": "_maxTreeDepth",
          "type": "uint8"
        },
        {
          "internalType": "address",
          "name": "_withdrawVerifier",
          "type": "address"
        },
        {
          "internalType": "address",
          "name": "_nativeToken",
          "type": "address"
        },
        {
          "internalType": "string",
          "name": "name",
          "type": "string"
        },
        {
          "internalType": "string",
          "name": "symbol",
          "type": "string"
        }
      ],
      "stateMutability": "nonpayable",
      "type": "constructor"
    },
    {
      "inputs": [
        {
          "internalType": "address",
          "name": "spender",
          "type": "address"
        },
        {
          "internalType": "uint256",
          "name": "allowance",
          "type": "uint256"
        },
        {
          "internalType": "uint256",
          "name": "needed",
          "type": "uint256"
        }
      ],
      "name": "ERC20InsufficientAllowance",
      "type": "error"
    },
    {
      "inputs": [
        {
          "internalType": "address",
          "name": "sender",
          "type": "address"
        },
        {
          "internalType": "uint256",
          "name": "balance",
          "type": "uint256"
        },
        {
          "internalType": "uint256",
          "name": "needed",
          "type": "uint256"
        }
      ],
      "name": "ERC20InsufficientBalance",
      "type": "error"
    },
    {
      "inputs": [
        {
          "internalType": "address",
          "name": "approver",
          "type": "address"
        }
      ],
      "name": "ERC20InvalidApprover",
      "type": "error"
    },
    {
      "inputs": [
        {
          "internalType": "address",
          "name": "receiver",
          "type": "address"
        }
      ],
      "name": "ERC20InvalidReceiver",
      "type": "error"
    },
    {
      "inputs": [
        {
          "internalType": "address",
          "name": "sender",
          "type": "address"
        }
      ],
      "name": "ERC20InvalidSender",
      "type": "error"
    },
    {
      "inputs": [
        {
          "internalType": "address",
          "name": "spender",
          "type": "address"
        }
      ],
      "name": "ERC20InvalidSpender",
      "type": "error"
    },
    {
      "anonymous": false,
      "inputs": [
        {
          "indexed": true,
          "internalType": "address",
          "name": "owner",
          "type": "address"
        },
        {
          "indexed": true,
          "internalType": "address",
          "name": "spender",
          "type": "address"
        },
        {
          "indexed": false,
          "internalType": "uint256",
          "name": "value",
          "type": "uint256"
        }
      ],
      "name": "Approval",
      "type": "event"
    },
    {
      "anonymous": false,
      "inputs": [
        {
          "indexed": true,
          "internalType": "uint256",
          "name": "commitment",
          "type": "uint256"
        },
        {
          "indexed": false,
          "internalType": "uint256",
          "name": "amount",
          "type": "uint256"
        },
        {
          "indexed": false,
          "internalType": "uint256",
          "name": "index",
          "type": "uint256"
        }
      ],
      "name": "Burn",
      "type": "event"
    },
    {
      "anonymous": false,
      "inputs": [
        {
          "indexed": true,
          "internalType": "address",
          "name": "from",
          "type": "address"
        },
        {
          "indexed": true,
          "internalType": "address",
          "name": "to",
          "type": "address"
        },
        {
          "indexed": false,
          "internalType": "uint256",
          "name": "value",
          "type": "uint256"
        }
      ],
      "name": "Transfer",
      "type": "event"
    },
    {
      "inputs": [
        {
          "internalType": "uint256",
          "name": "_nullifier",
          "type": "uint256"
        },
        {
          "internalType": "uint256",
          "name": "_chainId",
          "type": "uint256"
        },
        {
          "internalType": "uint256",
          "name": "_amount",
          "type": "uint256"
        },
        {
          "internalType": "uint256",
          "name": "_gigaRoot",
          "type": "uint256"
        },
        {
          "internalType": "uint256",
          "name": "_localRoot",
          "type": "uint256"
        },
        {
          "internalType": "uint256",
          "name": "_feeFactor",
          "type": "uint256"
        },
        {
          "internalType": "uint256",
          "name": "_priorityFee",
          "type": "uint256"
        },
        {
          "internalType": "uint256",
          "name": "_maxFee",
          "type": "uint256"
        },
        {
          "internalType": "address",
          "name": "_relayer",
          "type": "address"
        },
        {
          "internalType": "address",
          "name": "_recipient",
          "type": "address"
        }
      ],
      "name": "_formatPublicInputs",
      "outputs": [
        {
          "internalType": "bytes32[]",
          "name": "",
          "type": "bytes32[]"
        }
      ],
      "stateMutability": "pure",
      "type": "function"
    },
    {
      "inputs": [
        {
          "internalType": "address",
          "name": "owner",
          "type": "address"
        },
        {
          "internalType": "address",
          "name": "spender",
          "type": "address"
        }
      ],
      "name": "allowance",
      "outputs": [
        {
          "internalType": "uint256",
          "name": "",
          "type": "uint256"
        }
      ],
      "stateMutability": "view",
      "type": "function"
    },
    {
      "inputs": [
        {
          "internalType": "address",
          "name": "spender",
          "type": "address"
        },
        {
          "internalType": "uint256",
          "name": "value",
          "type": "uint256"
        }
      ],
      "name": "approve",
      "outputs": [
        {
          "internalType": "bool",
          "name": "",
          "type": "bool"
        }
      ],
      "stateMutability": "nonpayable",
      "type": "function"
    },
    {
      "inputs": [
        {
          "internalType": "address",
          "name": "account",
          "type": "address"
        }
      ],
      "name": "balanceOf",
      "outputs": [
        {
          "internalType": "uint256",
          "name": "",
          "type": "uint256"
        }
      ],
      "stateMutability": "view",
      "type": "function"
    },
    {
      "inputs": [
        {
          "internalType": "uint256",
          "name": "_preCommitment",
          "type": "uint256"
        },
        {
          "internalType": "uint256",
          "name": "_amount",
          "type": "uint256"
        }
      ],
      "name": "burn",
      "outputs": [],
      "stateMutability": "nonpayable",
      "type": "function"
    },
    {
      "inputs": [],
      "name": "cachedLocalRoot",
      "outputs": [
        {
          "internalType": "uint256",
          "name": "",
          "type": "uint256"
        }
      ],
      "stateMutability": "view",
      "type": "function"
    },
    {
      "inputs": [],
      "name": "commitTreeData",
      "outputs": [
        {
          "internalType": "uint40",
          "name": "maxIndex",
          "type": "uint40"
        },
        {
          "internalType": "uint40",
          "name": "numberOfLeaves",
          "type": "uint40"
        }
      ],
      "stateMutability": "view",
      "type": "function"
    },
    {
      "inputs": [],
      "name": "decimals",
      "outputs": [
        {
          "internalType": "uint8",
          "name": "",
          "type": "uint8"
        }
      ],
      "stateMutability": "view",
      "type": "function"
    },
    {
      "inputs": [],
      "name": "getLocalRootAndBlock",
      "outputs": [
        {
          "internalType": "uint256",
          "name": "",
          "type": "uint256"
        },
        {
          "internalType": "uint256",
          "name": "",
          "type": "uint256"
        }
      ],
      "stateMutability": "nonpayable",
      "type": "function"
    },
    {
      "inputs": [],
      "name": "gigaRoot",
      "outputs": [
        {
          "internalType": "uint256",
          "name": "",
          "type": "uint256"
        }
      ],
      "stateMutability": "view",
      "type": "function"
    },
    {
      "inputs": [
        {
          "internalType": "uint256",
          "name": "",
          "type": "uint256"
        }
      ],
      "name": "gigaRootHistory",
      "outputs": [
        {
          "internalType": "bool",
          "name": "",
          "type": "bool"
        }
      ],
      "stateMutability": "view",
      "type": "function"
    },
    {
      "inputs": [],
      "name": "gigaRootProvider",
      "outputs": [
        {
          "internalType": "address",
          "name": "",
          "type": "address"
        }
      ],
      "stateMutability": "view",
      "type": "function"
    },
    {
      "inputs": [
        {
          "internalType": "address",
          "name": "_gigaRootProvider",
          "type": "address"
        },
        {
          "internalType": "address",
          "name": "_l1BridgeAdapter",
          "type": "address"
        }
      ],
      "name": "initialize",
      "outputs": [],
      "stateMutability": "nonpayable",
      "type": "function"
    },
    {
      "inputs": [
        {
          "internalType": "uint256",
          "name": "_gigaRoot",
          "type": "uint256"
        }
      ],
      "name": "isValidGigaRoot",
      "outputs": [
        {
          "internalType": "bool",
          "name": "",
          "type": "bool"
        }
      ],
      "stateMutability": "view",
      "type": "function"
    },
    {
      "inputs": [
        {
          "internalType": "uint256",
          "name": "_localRoot",
          "type": "uint256"
        }
      ],
      "name": "isValidLocalRoot",
      "outputs": [
        {
          "internalType": "bool",
          "name": "",
          "type": "bool"
        }
      ],
      "stateMutability": "view",
      "type": "function"
    },
    {
      "inputs": [],
      "name": "l1BridgeAdapter",
      "outputs": [
        {
          "internalType": "address",
          "name": "",
          "type": "address"
        }
      ],
      "stateMutability": "view",
      "type": "function"
    },
    {
      "inputs": [],
      "name": "lastLeafIndex",
      "outputs": [
        {
          "internalType": "uint256",
          "name": "",
          "type": "uint256"
        }
      ],
      "stateMutability": "view",
      "type": "function"
    },
    {
      "inputs": [],
      "name": "localRoot",
      "outputs": [
        {
          "internalType": "uint256",
          "name": "",
          "type": "uint256"
        }
      ],
      "stateMutability": "view",
      "type": "function"
    },
    {
      "inputs": [
        {
          "internalType": "uint256",
          "name": "",
          "type": "uint256"
        }
      ],
      "name": "localRootHistory",
      "outputs": [
        {
          "internalType": "bool",
          "name": "",
          "type": "bool"
        }
      ],
      "stateMutability": "view",
      "type": "function"
    },
    {
      "inputs": [],
      "name": "maxTreeDepth",
      "outputs": [
        {
          "internalType": "uint8",
          "name": "",
          "type": "uint8"
        }
      ],
      "stateMutability": "view",
      "type": "function"
    },
    {
      "inputs": [
        {
          "internalType": "uint256",
          "name": "_nullifier",
          "type": "uint256"
        },
        {
          "internalType": "uint256",
          "name": "_amount",
          "type": "uint256"
        },
        {
          "internalType": "uint256",
          "name": "_gigaRoot",
          "type": "uint256"
        },
        {
          "internalType": "uint256",
          "name": "_localRoot",
          "type": "uint256"
        },
        {
          "internalType": "uint256",
          "name": "_feeFactor",
          "type": "uint256"
        },
        {
          "internalType": "uint256",
          "name": "_priorityFee",
          "type": "uint256"
        },
        {
          "internalType": "uint256",
          "name": "_maxFee",
          "type": "uint256"
        },
        {
          "internalType": "address",
          "name": "_relayer",
          "type": "address"
        },
        {
          "internalType": "address",
          "name": "_recipient",
          "type": "address"
        },
        {
          "internalType": "bytes",
          "name": "_poof",
          "type": "bytes"
        }
      ],
      "name": "mint",
      "outputs": [],
      "stateMutability": "nonpayable",
      "type": "function"
    },
    {
      "inputs": [],
      "name": "name",
      "outputs": [
        {
          "internalType": "string",
          "name": "",
          "type": "string"
        }
      ],
      "stateMutability": "view",
      "type": "function"
    },
    {
      "inputs": [],
      "name": "nativeToken",
      "outputs": [
        {
          "internalType": "address",
          "name": "",
          "type": "address"
        }
      ],
      "stateMutability": "view",
      "type": "function"
    },
    {
      "inputs": [
        {
          "internalType": "uint256",
          "name": "_gigaRoot",
          "type": "uint256"
        }
      ],
      "name": "receiveGigaRoot",
      "outputs": [],
      "stateMutability": "payable",
      "type": "function"
    },
    {
      "inputs": [],
      "name": "storeLocalRootInHistory",
      "outputs": [
        {
          "internalType": "uint256",
          "name": "",
          "type": "uint256"
        }
      ],
      "stateMutability": "nonpayable",
      "type": "function"
    },
    {
      "inputs": [],
      "name": "symbol",
      "outputs": [
        {
          "internalType": "string",
          "name": "",
          "type": "string"
        }
      ],
      "stateMutability": "view",
      "type": "function"
    },
    {
      "inputs": [],
      "name": "totalSupply",
      "outputs": [
        {
          "internalType": "uint256",
          "name": "",
          "type": "uint256"
        }
      ],
      "stateMutability": "view",
      "type": "function"
    },
    {
      "inputs": [
        {
          "internalType": "address",
          "name": "to",
          "type": "address"
        },
        {
          "internalType": "uint256",
          "name": "value",
          "type": "uint256"
        }
      ],
      "name": "transfer",
      "outputs": [
        {
          "internalType": "bool",
          "name": "",
          "type": "bool"
        }
      ],
      "stateMutability": "nonpayable",
      "type": "function"
    },
    {
      "inputs": [
        {
          "internalType": "address",
          "name": "from",
          "type": "address"
        },
        {
          "internalType": "address",
          "name": "to",
          "type": "address"
        },
        {
          "internalType": "uint256",
          "name": "value",
          "type": "uint256"
        }
      ],
      "name": "transferFrom",
      "outputs": [
        {
          "internalType": "bool",
          "name": "",
          "type": "bool"
        }
      ],
      "stateMutability": "nonpayable",
      "type": "function"
    },
    {
      "inputs": [
        {
          "internalType": "uint256",
          "name": "_amount",
          "type": "uint256"
        }
      ],
      "name": "unwrap",
      "outputs": [],
      "stateMutability": "nonpayable",
      "type": "function"
    },
    {
      "inputs": [],
      "name": "withdrawVerifier",
      "outputs": [
        {
          "internalType": "address",
          "name": "",
          "type": "address"
        }
      ],
      "stateMutability": "view",
      "type": "function"
    },
    {
      "inputs": [
        {
          "internalType": "uint256",
          "name": "_amount",
          "type": "uint256"
        }
      ],
      "name": "wrap",
      "outputs": [],
      "stateMutability": "nonpayable",
      "type": "function"
    }
  ],
  "bytecode": "0x608060405234801561000f575f5ffd5b50604051611d68380380611d6883398101604081905261002e9161028e565b8484848484600361003f83826103af565b50600461004c82826103af565b50506008805460ff191660ff8616908117909155600f80546001600160a01b0319166001600160a01b038616179055604051631844db3b60e21b815260066004820152602481019190915273__$5fc44c2a7799c6ceb48acabb21e98687d0$__91506361136cec906044015f6040518083038186803b1580156100cd575f5ffd5b505af41580156100df573d5f5f3e3d5ffd5b5050601180546001600160a01b0385166001600160a01b0319918216179091556005805490911633179055506101159050610123565b505050505050505050610480565b5f8061012d610150565b60098190555f818152600c60205260409020805460ff1916600117905592915050565b6008546040516339ebe6e360e01b81526006600482015260ff90911660248201525f9073__$5fc44c2a7799c6ceb48acabb21e98687d0$__906339ebe6e390604401602060405180830381865af41580156101ad573d5f5f3e3d5ffd5b505050506040513d601f19601f820116820180604052508101906101d19190610469565b905090565b80516001600160a01b03811681146101ec575f5ffd5b919050565b634e487b7160e01b5f52604160045260245ffd5b5f82601f830112610214575f5ffd5b81516001600160401b0381111561022d5761022d6101f1565b604051601f8201601f19908116603f011681016001600160401b038111828210171561025b5761025b6101f1565b604052818152838201602001851015610272575f5ffd5b8160208501602083015e5f918101602001919091529392505050565b5f5f5f5f5f60a086880312156102a2575f5ffd5b855160ff811681146102b2575f5ffd5b94506102c0602087016101d6565b93506102ce604087016101d6565b60608701519093506001600160401b038111156102e9575f5ffd5b6102f588828901610205565b608088015190935090506001600160401b03811115610312575f5ffd5b61031e88828901610205565b9150509295509295909350565b600181811c9082168061033f57607f821691505b60208210810361035d57634e487b7160e01b5f52602260045260245ffd5b50919050565b601f8211156103aa57805f5260205f20601f840160051c810160208510156103885750805b601f840160051c820191505b818110156103a7575f8155600101610394565b50505b505050565b81516001600160401b038111156103c8576103c86101f1565b6103dc816103d6845461032b565b84610363565b6020601f82116001811461040e575f83156103f75750848201515b5f19600385901b1c1916600184901b1784556103a7565b5f84815260208120601f198516915b8281101561043d578785015182556020948501946001909201910161041d565b508482101561045a57868401515f19600387901b60f8161c191681555b50505050600190811b01905550565b5f60208284031215610479575f5ffd5b5051919050565b6118db8061048d5f395ff3fe6080604052600436106101db575f3560e01c8063828f227a116100fd578063b390c0ab11610092578063df54fe5011610062578063df54fe50146105d9578063e1758bd8146105ee578063e358270d1461060d578063ea598cb01461063b575f5ffd5b8063b390c0ab1461053e578063d3f9fa511461055d578063dd62ed3e14610576578063de0e9a3e146105ba575f5ffd5b80639d1453e5116100cd5780639d1453e5146104ab578063a50410a9146104d7578063a9059cbb146104f6578063ae5582fa14610515575f5ffd5b8063828f227a14610444578063864eb16414610459578063882f624a1461047857806395d89b4114610497575f5ffd5b806329c50fa91161017357806357c423e11161014357806357c423e11461039757806367f8da3a146103c55780636b95cb05146103fc57806370a0823114610410575f5ffd5b806329c50fa9146103145780632ffe1f2914610329578063313ce56714610357578063485cc95514610378575f5ffd5b806323b872dd116101ae57806323b872dd1461028457806323f364c5146102a357806327e74ca3146102eb57806328b0c0aa14610300575f5ffd5b806306fdde03146101df578063095ea7b31461020957806318160ddd146102385780631ec84e8e14610256575b5f5ffd5b3480156101ea575f5ffd5b506101f361065a565b6040516102009190611454565b60405180910390f35b348015610214575f5ffd5b50610228610223366004611488565b6106ea565b6040519015158152602001610200565b348015610243575f5ffd5b506002545b604051908152602001610200565b348015610261575f5ffd5b506102286102703660046114b0565b5f908152600c602052604090205460ff1690565b34801561028f575f5ffd5b5061022861029e3660046114c7565b610703565b3480156102ae575f5ffd5b506006546102cd9064ffffffffff808216916501000000000090041682565b6040805164ffffffffff938416815292909116602083015201610200565b6102fe6102f93660046114b0565b610726565b005b34801561030b575f5ffd5b506102486107a2565b34801561031f575f5ffd5b50610248600a5481565b348015610334575f5ffd5b506102286103433660046114b0565b600c6020525f908152604090205460ff1681565b348015610362575f5ffd5b5060065b60405160ff9091168152602001610200565b348015610383575f5ffd5b506102fe610392366004611501565b610841565b3480156103a2575f5ffd5b506102286103b13660046114b0565b600b6020525f908152604090205460ff1681565b3480156103d0575f5ffd5b50600e546103e4906001600160a01b031681565b6040516001600160a01b039091168152602001610200565b348015610407575f5ffd5b50610248610993565b34801561041b575f5ffd5b5061024861042a366004611532565b6001600160a01b03165f9081526020819052604090205490565b34801561044f575f5ffd5b5061024860095481565b348015610464575f5ffd5b50600f546103e4906001600160a01b031681565b348015610483575f5ffd5b50600d546103e4906001600160a01b031681565b3480156104a2575f5ffd5b506101f36109c0565b3480156104b6575f5ffd5b506104ca6104c536600461154b565b6109cf565b6040516102009190611601565b3480156104e2575f5ffd5b506102fe6104f1366004611627565b610b0b565b348015610501575f5ffd5b50610228610510366004611488565b610d91565b348015610520575f5ffd5b50610529610d9e565b60408051928352602083019190915201610200565b348015610549575f5ffd5b506102fe61055836600461173d565b610db3565b348015610568575f5ffd5b506008546103669060ff1681565b348015610581575f5ffd5b50610248610590366004611501565b6001600160a01b039182165f90815260016020908152604080832093909416825291909152205490565b3480156105c5575f5ffd5b506102fe6105d43660046114b0565b610f3e565b3480156105e4575f5ffd5b5061024860105481565b3480156105f9575f5ffd5b506011546103e4906001600160a01b031681565b348015610618575f5ffd5b506102286106273660046114b0565b5f908152600b602052604090205460ff1690565b348015610646575f5ffd5b506102fe6106553660046114b0565b610fd7565b6060600380546106699061175d565b80601f01602080910402602001604051908101604052809291908181526020018280546106959061175d565b80156106e05780601f106106b7576101008083540402835291602001916106e0565b820191905f5260205f20905b8154815290600101906020018083116106c357829003601f168201915b5050505050905090565b5f336106f7818585611073565b60019150505b92915050565b5f33610710858285611085565b61071b85858561111a565b506001949350505050565b600e546001600160a01b031633146107855760405162461bcd60e51b815260206004820152601460248201527f4e6f742067696761526f6f7450726f766964657200000000000000000000000060448201526064015b60405180910390fd5b5f818152600b60205260409020805460ff19166001179055600a55565b6008546040517f39ebe6e30000000000000000000000000000000000000000000000000000000081526006600482015260ff90911660248201525f9073__$5fc44c2a7799c6ceb48acabb21e98687d0$__906339ebe6e390604401602060405180830381865af4158015610818573d5f5f3e3d5ffd5b505050506040513d601f19601f8201168201806040525081019061083c9190611795565b905090565b6005546001600160a01b0316331461089b5760405162461bcd60e51b815260206004820152601060248201527f4e6f7420746865206465706c6f79657200000000000000000000000000000000604482015260640161077c565b600e546001600160a01b0316156108f45760405162461bcd60e51b815260206004820152601f60248201527f67696761526f6f7450726f766964657220697320616c72656164792073657400604482015260640161077c565b600d546001600160a01b03161561094d5760405162461bcd60e51b815260206004820152601e60248201527f6c314272696467654164617074657220697320616c7265616479207365740000604482015260640161077c565b600e80546001600160a01b039384167fffffffffffffffffffffffff000000000000000000000000000000000000000091821617909155600d8054929093169116179055565b5f5f61099d6107a2565b60098190555f818152600c60205260409020805460ff1916600117905592915050565b6060600480546106699061175d565b60408051600a80825261016082019092526060915f919060208201610140803683370190505060408051610100810182528e815260208082018f90528183018e9052606082018d9052608082018c905260a082018b905260c082018a905260e0820189905282518084019093526001600160a01b0380891684528716908301529192505f5b6008811015610a9b57828160088110610a6f57610a6f6117ac565b60200201515f1b848281518110610a8857610a886117ac565b6020908102919091010152600101610a54565b5060085f5b6002811015610af757828160028110610abb57610abb6117ac565b60200201516001600160a01b031685610ad483856117d4565b81518110610ae457610ae46117ac565b6020908102919091010152600101610aa0565b50929e9d5050505050505050505050505050565b5f888152600b602052604090205460ff16610b685760405162461bcd60e51b815260206004820152601160248201527f5f67696761526f6f7420756e6b6e6f776e000000000000000000000000000000604482015260640161077c565b5f878152600c602052604090205460ff16610bc55760405162461bcd60e51b815260206004820152601260248201527f5f6c6f63616c526f6f7420756e6b6e6f776e0000000000000000000000000000604482015260640161077c565b5f610bd88b468c8c8c8c8c8c8c8c6109cf565b600f546040517fea50d0e40000000000000000000000000000000000000000000000000000000081529192506001600160a01b03169063ea50d0e490610c2490859085906004016117e7565b602060405180830381865afa158015610c3f573d5f5f3e3d5ffd5b505050506040513d601f19601f82011682018060405250810190610c639190611814565b610caf5760405162461bcd60e51b815260206004820152600d60248201527f696e76616c69642070726f6f6600000000000000000000000000000000000000604482015260640161077c565b8615610d7a575f610cc087486117d4565b610cca9089611833565b905085811115610d425760405162461bcd60e51b815260206004820152602260248201527f5f72656c61796572466565206973206c6172676572207468616e205f6d61784660448201527f6565000000000000000000000000000000000000000000000000000000000000606482015260840161077c565b5f196001600160a01b03861601610d57573394505b610d618582611177565b610d7484610d6f838e61184a565b611177565b50610d84565b610d84838b611177565b5050505050505050505050565b5f336106f781858561111a565b5f5f610da8610993565b505060095491439150565b610dbd33826111af565b6040805180820182528381526020810183905290517f561558fe0000000000000000000000000000000000000000000000000000000081525f9173__$75f79a42d9bcbdbb69ad79ebd80f556f39$__9163561558fe91610e1f9160040161185d565b602060405180830381865af4158015610e3a573d5f5f3e3d5ffd5b505050506040513d601f19601f82011682018060405250810190610e5e9190611795565b6040517f0224ef5e000000000000000000000000000000000000000000000000000000008152600660048201526024810182905290915073__$5fc44c2a7799c6ceb48acabb21e98687d0$__90630224ef5e906044015f6040518083038186803b158015610eca575f5ffd5b505af4158015610edc573d5f5f3e3d5ffd5b50505050807f5af801e983cfd842de8b0797a2d6077db3ac2dea16571e0c7f5080291ca1b93483601054604051610f1d929190918252602082015260400190565b60405180910390a260108054905f610f348361188d565b9190505550505050565b6011546040517fa9059cbb000000000000000000000000000000000000000000000000000000008152336004820152602481018390526001600160a01b039091169063a9059cbb906044016020604051808303815f875af1158015610fa5573d5f5f3e3d5ffd5b505050506040513d601f19601f82011682018060405250810190610fc99190611814565b50610fd430826111af565b50565b6011546040517f23b872dd000000000000000000000000000000000000000000000000000000008152336004820152306024820152604481018390526001600160a01b03909116906323b872dd906064016020604051808303815f875af1158015611044573d5f5f3e3d5ffd5b505050506040513d601f19601f820116820180604052508101906110689190611814565b50610fd43382611177565b61108083838360016111e3565b505050565b6001600160a01b038381165f908152600160209081526040808320938616835292905220545f198110156111145781811015611106576040517ffb8f41b20000000000000000000000000000000000000000000000000000000081526001600160a01b0384166004820152602481018290526044810183905260640161077c565b61111484848484035f6111e3565b50505050565b6001600160a01b03831661114357604051634b637e8f60e11b81525f600482015260240161077c565b6001600160a01b03821661116c5760405163ec442f0560e01b81525f600482015260240161077c565b6110808383836112e7565b6001600160a01b0382166111a05760405163ec442f0560e01b81525f600482015260240161077c565b6111ab5f83836112e7565b5050565b6001600160a01b0382166111d857604051634b637e8f60e11b81525f600482015260240161077c565b6111ab825f836112e7565b6001600160a01b038416611225576040517fe602df050000000000000000000000000000000000000000000000000000000081525f600482015260240161077c565b6001600160a01b038316611267576040517f94280d620000000000000000000000000000000000000000000000000000000081525f600482015260240161077c565b6001600160a01b038085165f908152600160209081526040808320938716835292905220829055801561111457826001600160a01b0316846001600160a01b03167f8c5be1e5ebec7d5bd14f71427d1e84f3dd0314c0f7b2291e5b200ac8c7c3b925846040516112d991815260200190565b60405180910390a350505050565b6001600160a01b038316611311578060025f82825461130691906117d4565b9091555061139a9050565b6001600160a01b0383165f908152602081905260409020548181101561137c576040517fe450d38c0000000000000000000000000000000000000000000000000000000081526001600160a01b0385166004820152602481018290526044810183905260640161077c565b6001600160a01b0384165f9081526020819052604090209082900390555b6001600160a01b0382166113b6576002805482900390556113d4565b6001600160a01b0382165f9081526020819052604090208054820190555b816001600160a01b0316836001600160a01b03167fddf252ad1be2c89b69c2b068fc378daa952ba7f163c4a11628f55a4df523b3ef8360405161141991815260200190565b60405180910390a3505050565b5f81518084528060208401602086015e5f602082860101526020601f19601f83011685010191505092915050565b602081525f6114666020830184611426565b9392505050565b80356001600160a01b0381168114611483575f5ffd5b919050565b5f5f60408385031215611499575f5ffd5b6114a28361146d565b946020939093013593505050565b5f602082840312156114c0575f5ffd5b5035919050565b5f5f5f606084860312156114d9575f5ffd5b6114e28461146d565b92506114f06020850161146d565b929592945050506040919091013590565b5f5f60408385031215611512575f5ffd5b61151b8361146d565b91506115296020840161146d565b90509250929050565b5f60208284031215611542575f5ffd5b6114668261146d565b5f5f5f5f5f5f5f5f5f5f6101408b8d031215611565575f5ffd5b8a35995060208b0135985060408b0135975060608b0135965060808b0135955060a08b0135945060c08b0135935060e08b013592506115a76101008c0161146d565b91506115b66101208c0161146d565b90509295989b9194979a5092959850565b5f8151808452602084019350602083015f5b828110156115f75781518652602095860195909101906001016115d9565b5093949350505050565b602081525f61146660208301846115c7565b634e487b7160e01b5f52604160045260245ffd5b5f5f5f5f5f5f5f5f5f5f6101408b8d031215611641575f5ffd5b8a35995060208b0135985060408b0135975060608b0135965060808b0135955060a08b0135945060c08b0135935061167b60e08c0161146d565b925061168a6101008c0161146d565b91506101208b013567ffffffffffffffff8111156116a6575f5ffd5b8b01601f81018d136116b6575f5ffd5b803567ffffffffffffffff8111156116d0576116d0611613565b604051601f8201601f19908116603f0116810167ffffffffffffffff811182821017156116ff576116ff611613565b6040528181528282016020018f1015611716575f5ffd5b816020840160208301375f602083830101528093505050509295989b9194979a5092959850565b5f5f6040838503121561174e575f5ffd5b50508035926020909101359150565b600181811c9082168061177157607f821691505b60208210810361178f57634e487b7160e01b5f52602260045260245ffd5b50919050565b5f602082840312156117a5575f5ffd5b5051919050565b634e487b7160e01b5f52603260045260245ffd5b634e487b7160e01b5f52601160045260245ffd5b808201808211156106fd576106fd6117c0565b604081525f6117f96040830185611426565b828103602084015261180b81856115c7565b95945050505050565b5f60208284031215611824575f5ffd5b81518015158114611466575f5ffd5b80820281158282048414176106fd576106fd6117c0565b818103818111156106fd576106fd6117c0565b6040810181835f5b6002811015611884578151835260209283019290910190600101611865565b50505092915050565b5f6001820161189e5761189e6117c0565b506001019056fea26469706673582212204100bfb1d2ff5d86c9df01d995520949925e55bb09693aefb98c30b4eebf111864736f6c634300081d0033",
  "linkReferences": {
    "@zk-kit/lazy-imt.sol/LazyIMT.sol": {
      "LazyIMT": [
        {
          "length": 20,
          "start": 153
        },
        {
          "length": 20,
          "start": 373
        },
        {
          "length": 20,
          "start": 3181
        },
        {
          "length": 20,
          "start": 4900
        }
      ]
    },
    "poseidon-solidity/PoseidonT3.sol": {
      "PoseidonT3": [
        {
          "length": 20,
          "start": 4742
        }
      ]
    }
  },
  "deployedLinkReferences": {
    "@zk-kit/lazy-imt.sol/LazyIMT.sol": {
      "LazyIMT": [
        {
          "length": 20,
          "start": 2016
        },
        {
          "length": 20,
          "start": 3735
        }
      ]
    },
    "poseidon-solidity/PoseidonT3.sol": {
      "PoseidonT3": [
        {
          "length": 20,
          "start": 3577
        }
      ]
    }
  }
}