{
  "_format": "hh-sol-artifact-1",
  "contractName": "LazyIMT",
  "sourceName": "@zk-kit/lazy-imt.sol/LazyIMT.sol",
  "abi": [
    {
      "inputs": [
        {
          "internalType": "uint8",
          "name": "index",
          "type": "uint8"
        }
      ],
      "name": "defaultZero",
      "outputs": [
        {
          "internalType": "uint256",
          "name": "",
          "type": "uint256"
        }
      ],
      "stateMutability": "pure",
      "type": "function"
    },
    {
      "inputs": [
        {
          "internalType": "uint8",
          "name": "level",
          "type": "uint8"
        },
        {
          "internalType": "uint40",
          "name": "index",
          "type": "uint40"
        }
      ],
      "name": "indexForElement",
      "outputs": [
        {
          "internalType": "uint40",
          "name": "",
          "type": "uint40"
        }
      ],
      "stateMutability": "pure",
      "type": "function"
    }
  ],
  "bytecode": "0x611cf0610034600b8282823980515f1a607314602857634e487b7160e01b5f525f60045260245ffd5b305f52607381538281f3fe73000000000000000000000000000000000000000030146080604052600436106100aa575f3560e01c80633c251db11161007d578063899375d611610063578063899375d61461017c578063b7ca3a2d146101a9578063ca9ecfd4146101bc575f5ffd5b80633c251db11461013d57806361136cec1461015d575f5ffd5b80630224ef5e146100ae57806309489a3c146100cf5780630c26d683146100ee57806339ebe6e31461011c575b5f5ffd5b8180156100b9575f5ffd5b506100cd6100c83660046118d5565b6101cf565b005b8180156100da575f5ffd5b506100cd6100e936600461190e565b6101dd565b6101016100fc366004611950565b6101ed565b60405164ffffffffff90911681526020015b60405180910390f35b61012f61012a366004611981565b610201565b604051908152602001610113565b61015061014b3660046119a2565b61020c565b60405161011391906119d2565b818015610168575f5ffd5b506100cd610177366004611981565b610223565b818015610187575f5ffd5b506100cd610196366004611a14565b805469ffffffffff000000000019169055565b61012f6101b7366004611a14565b61022d565b61012f6101ca366004611a2b565b610237565b6101d98282610241565b5050565b6101e8838383610470565b505050565b5f6101f88383610757565b90505b92915050565b5f6101f88383610774565b60606102198484846108b0565b90505b9392505050565b6101d98282610c3b565b5f6101fb82610cc0565b5f6101fb82610d17565b815465010000000000900464ffffffffff167f30644e72e131a029b85045b68181585d2833e84879b9709143e1f593f000000182106102da5760405162461bcd60e51b815260206004820152602a60248201527f4c617a79494d543a206c656166206d757374206265203c20534e41524b5f53436044820152691053105497d19251531160b21b60648201526084015b60405180910390fd5b825464ffffffffff908116908216106103355760405162461bcd60e51b815260206004820152601560248201527f4c617a79494d543a20747265652069732066756c6c000000000000000000000060448201526064016102d1565b610340816001611a58565b835464ffffffffff91909116650100000000000269ffffffffff000000000019909116178355815f5b81856001015f6103798487610757565b64ffffffffff16815260208101919091526040015f20556001831615610469575f6103ae826103a9600187611a75565b610757565b60408051808201825264ffffffffff83165f90815260018a0160209081529083902054825281018690529051632b0aac7f60e11b815291925073__$75f79a42d9bcbdbb69ad79ebd80f556f39$__9163561558fe9161040f91600401611a92565b602060405180830381865af415801561042a573d5f5f3e3d5ffd5b505050506040513d601f19601f8201168201806040525081019061044e9190611ac2565b647fffffffff600195861c1694909350919091019050610369565b5050505050565b7f30644e72e131a029b85045b68181585d2833e84879b9709143e1f593f000000182106104f25760405162461bcd60e51b815260206004820152602a60248201527f4c617a79494d543a206c656166206d757374206265203c20534e41524b5f53436044820152691053105497d19251531160b21b60648201526084016102d1565b825464ffffffffff65010000000000909104811690821681116105575760405162461bcd60e51b815260206004820152601860248201527f4c617a79494d543a206c656166206d757374206578697374000000000000000060448201526064016102d1565b825f5b81866001015f61056a8488610757565b64ffffffffff1681526020019081526020015f20819055505f8160016105909190611ad9565b60ff168464ffffffffff16901c64ffffffffff16905060018564ffffffffff16901c64ffffffffff1681116105c5575061074f565b600185165f03610687575f6105df836103a9886001611a58565b60408051808201825286815264ffffffffff83165f90815260018c0160209081529083902054908201529051632b0aac7f60e11b815291925073__$75f79a42d9bcbdbb69ad79ebd80f556f39$__9163561558fe9161064091600401611a92565b602060405180830381865af415801561065b573d5f5f3e3d5ffd5b505050506040513d601f19601f8201168201806040525081019061067f9190611ac2565b93505061073b565b5f610697836103a9600189611a75565b60408051808201825264ffffffffff83165f90815260018c0160209081529083902054825281018790529051632b0aac7f60e11b815291925073__$75f79a42d9bcbdbb69ad79ebd80f556f39$__9163561558fe916106f891600401611a92565b602060405180830381865af4158015610713573d5f5f3e3d5ffd5b505050506040513d601f19601f820116820180604052508101906107379190611ac2565b9350505b50647fffffffff600194851c16930161055a565b505050505050565b5f8161076a60ff851663ffffffff611af2565b6101f89190611a58565b5f5f8260ff16116107c75760405162461bcd60e51b815260206004820152601a60248201527f4c617a79494d543a206465707468206d757374206265203e203000000000000060448201526064016102d1565b602060ff831611156108275760405162461bcd60e51b815260206004820152602360248201527f4c617a79494d543a206465707468206d757374206265203c3d204d41585f44456044820152620a0a8960eb1b60648201526084016102d1565b825465010000000000900464ffffffffff168061084860ff85166002611c2f565b64ffffffffff16101561089d5760405162461bcd60e51b815260206004820152601860248201527f4c617a79494d543a20616d626967756f7573206465707468000000000000000060448201526064016102d1565b6108a88482856113b1565b949350505050565b825460609064ffffffffff65010000000000909104811690841681116109185760405162461bcd60e51b815260206004820152601860248201527f4c617a79494d543a206c656166206d757374206578697374000000000000000060448201526064016102d1565b60015b64ffffffffff821661093160ff83166002611c2f565b64ffffffffff161015610950578061094881611c48565b91505061091b565b8060ff168460ff1610156109a65760405162461bcd60e51b815260206004820152601460248201527f4c617a79494d543a2070726f6f6620646570746800000000000000000000000060448201526064016102d1565b5f8460ff1667ffffffffffffffff8111156109c3576109c3611c66565b6040519080825280602002602001820160405280156109ec578160200160208202803683370190505b509050610a0587846109ff600186611c7a565b846114b6565b600186165f03610a975764ffffffffff8316610a22876001611a58565b64ffffffffff1610610a5a57610a375f610d17565b815f81518110610a4957610a49611c93565b602002602001018181525050610ae1565b866001015f610a705f8960016103a99190611a58565b64ffffffffff1681526020019081526020015f2054815f81518110610a4957610a49611c93565b866001015f610aad5f60018a6103a99190611a75565b64ffffffffff1681526020019081526020015f2054815f81518110610ad457610ad4611c93565b6020026020010181815250505b647fffffffff600196871c16955b8560ff168160ff161015610c305764ffffffffff80851660ff83161c16600188165f03610bcf5780610b22896001611a58565b64ffffffffff161015610b8057886001015f610b45848b60016103a99190611a58565b64ffffffffff1681526020019081526020015f2054838360ff1681518110610b6f57610b6f611c93565b602002602001018181525050610c1c565b64ffffffffff881660ff8316610b97600188611a75565b64ffffffffff16901c64ffffffffff1611610bca57610bb582610d17565b838360ff1681518110610b6f57610b6f611c93565b610c1c565b886001015f610be58460018c6103a99190611a75565b64ffffffffff1681526020019081526020015f2054838360ff1681518110610c0f57610c0f611c93565b6020026020010181815250505b50647fffffffff600197881c169601610aef565b509695505050505050565b602060ff82161115610c8f5760405162461bcd60e51b815260206004820152601760248201527f4c617a79494d543a205472656520746f6f206c6172676500000000000000000060448201526064016102d1565b610ca0600160ff831681901b611ca7565b825469ffffffffffffffffffff191664ffffffffff919091161790915550565b80545f9065010000000000900464ffffffffff1660015b64ffffffffff8216610ced60ff83166002611c2f565b64ffffffffff161015610d0c5780610d0481611c48565b915050610cd7565b6108a88483836113b1565b5f8160ff165f03610d2957505f919050565b8160ff16600103610d5b57507f2098f5fb9e239eab3ceac3f27b81e481dc3124d55ffed523a839ee8446b64864919050565b8160ff16600203610d8d57507f1069673dcdb12263df301a6ff584a7ec261a44cb9dc68df067a4774460b1f1e1919050565b8160ff16600303610dbf57507f18f43331537ee2af2e3d758d50f72106467c6eea50371dd528d57eb2b856d238919050565b8160ff16600403610df157507f07f9d837cb17b0d36320ffe93ba52345f1b728571a568265caac97559dbc952a919050565b8160ff16600503610e2357507f2b94cf5e8746b3f5c9631f4c5df32907a699c58c94b2ad4d7b5cec1639183f55919050565b8160ff16600603610e5557507f2dee93c5a666459646ea7d22cca9e1bcfed71e6951b953611d11dda32ea09d78919050565b8160ff16600703610e8757507f078295e5a22b84e982cf601eb639597b8b0515a88cb5ac7fa8a4aabe3c87349d919050565b8160ff16600803610eb957507f2fa5e5f18f6027a6501bec864564472a616b2e274a41211a444cbe3a99f3cc61919050565b8160ff16600903610eeb57507f0e884376d0d8fd21ecb780389e941f66e45e7acce3e228ab3e2156a614fcd747919050565b8160ff16600a03610f1d57507f1b7201da72494f1e28717ad1a52eb469f95892f957713533de6175e5da190af2919050565b8160ff16600b03610f4f57507f1f8d8822725e36385200c0b201249819a6e6e1e4650808b5bebc6bface7d7636919050565b8160ff16600c03610f8157507f2c5d82f66c914bafb9701589ba8cfcfb6162b0a12acf88a8d0879a0471b5f85a919050565b8160ff16600d03610fb357507f14c54148a0940bb820957f5adf3fa1134ef5c4aaa113f4646458f270e0bfbfd0919050565b8160ff16600e03610fe557507f190d33b12f986f961e10c0ee44d8b9af11be25588cad89d416118e4bf4ebe80c919050565b8160ff16600f0361101757507f22f98aa9ce704152ac17354914ad73ed1167ae6596af510aa5b3649325e06c92919050565b8160ff1660100361104957507f2a7c7c9b6ce5880b9f6f228d72bf6a575a526f29c66ecceef8b753d38bba7323919050565b8160ff1660110361107b57507f2e8186e558698ec1c67af9c14d463ffc470043c9c2988b954d75dd643f36b992919050565b8160ff166012036110ad57507f0f57c5571e9a4eab49e2c8cf050dae948aef6ead647392273546249d1c1ff10f919050565b8160ff166013036110df57507f1830ee67b5fb554ad5f63d4388800e1cfe78e310697d46e43c9ce36134f72cca919050565b8160ff1660140361111157507f2134e76ac5d21aab186c2be1dd8f84ee880a1e46eaf712f9d371b6df22191f3e919050565b8160ff1660150361114357507f19df90ec844ebc4ffeebd866f33859b0c051d8c958ee3aa88f8f8df3db91a5b1919050565b8160ff1660160361117557507f18cca2a66b5c0787981e69aefd84852d74af0e93ef4912b4648c05f722efe52b919050565b8160ff166017036111a757507f2388909415230d1b4d1304d2d54f473a628338f2efad83fadf05644549d2538d919050565b8160ff166018036111d957507f27171fb4a97b6cc0e9e8f543b5294de866a2af2c9c8d0b1d96e673e4529ed540919050565b8160ff1660190361120b57507f2ff6650540f629fd5711a0bc74fc0d28dcb230b9392583e5f8d59696dde6ae21919050565b8160ff16601a0361123d57507f120c58f143d491e95902f7f5277778a2e0ad5168f6add75669932630ce611518919050565b8160ff16601b0361126f57507f1f21feb70d3f21b07bf853d5e5db03071ec495a0a565a21da2d665d279483795919050565b8160ff16601c036112a157507f24be905fa71335e14c638cc0f66a8623a826e768068a9e968bb1a1dde18a72d2919050565b8160ff16601d036112d357507f0f8666b62ed17491c50ceadead57d4cd597ef3821d65c328744c74e553dac26d919050565b8160ff16601e0361130557507f0918d46bf52d98b034413f4a1a1c41594e7a7a3f6ae08cb43d1a2a230e1959ef919050565b8160ff16601f0361133757507f1bbeb01b4c479ecde76917645e404dfa2e26f90d0afc5a65128513ad375c5ff2919050565b8160ff1660200361136957507f2f68a1c58e257e42a17a6c61dff5551ed560b9922ab119d5ac8e184c9734ead9919050565b60405162461bcd60e51b815260206004820152601e60248201527f4c617a79494d543a2064656661756c745a65726f2062616420696e646578000060448201526064016102d1565b5f602060ff831611156114125760405162461bcd60e51b815260206004820152602360248201527f4c617a79494d543a206465707468206d757374206265203c3d204d41585f44456044820152620a0a8960eb1b60648201526084016102d1565b8264ffffffffff165f036114305761142982610d17565b905061021c565b5f61143c836001611ad9565b60ff1667ffffffffffffffff81111561145757611457611c66565b604051908082528060200260200182016040528015611480578160200160208202803683370190505b50905061148f858585846114b6565b808360ff16815181106114a4576114a4611c93565b60200260200101519150509392505050565b602060ff831611156115165760405162461bcd60e51b815260206004820152602360248201527f4c617a79494d543a206465707468206d757374206265203c3d204d41585f44456044820152620a0a8960eb1b60648201526084016102d1565b5f8364ffffffffff16116115925760405162461bcd60e51b815260206004820152602560248201527f4c617a79494d543a206e756d626572206f66206c6561766573206d757374206260448201527f65203e203000000000000000000000000000000000000000000000000000000060648201526084016102d1565b5f61159e600185611a75565b9050600181165f036115f157846001015f6115b95f84610757565b64ffffffffff1681526020019081526020015f2054825f815181106115e0576115e0611c93565b602002602001018181525050611619565b6115fa5f610d17565b825f8151811061160c5761160c611c93565b6020026020010181815250505b5f5b8360ff168160ff16101561074f57600182165f036117115773__$75f79a42d9bcbdbb69ad79ebd80f556f39$__63561558fe6040518060400160405280868560ff168151811061166d5761166d611c93565b6020026020010151815260200161168385610d17565b8152506040518263ffffffff1660e01b81526004016116a29190611a92565b602060405180830381865af41580156116bd573d5f5f3e3d5ffd5b505050506040513d601f19601f820116820180604052508101906116e19190611ac2565b836116ed836001611ad9565b60ff168151811061170057611700611c93565b6020026020010181815250506118c2565b5f61171d826001611ad9565b60ff168664ffffffffff16901c64ffffffffff16905060018364ffffffffff16901c64ffffffffff168111156117bf575f876001015f6117748560016117639190611ad9565b60018864ffffffffff16901c610757565b64ffffffffff1681526020019081526020015f20549050808584600161179a9190611ad9565b60ff16815181106117ad576117ad611c93565b602002602001018181525050506118c0565b5f876001015f6117d6856001886103a99190611a75565b64ffffffffff1681526020019081526020015f2054905073__$75f79a42d9bcbdbb69ad79ebd80f556f39$__63561558fe6040518060400160405280848152602001888760ff168151811061182d5761182d611c93565b60200260200101518152506040518263ffffffff1660e01b81526004016118549190611a92565b602060405180830381865af415801561186f573d5f5f3e3d5ffd5b505050506040513d601f19601f820116820180604052508101906118939190611ac2565b8561189f856001611ad9565b60ff16815181106118b2576118b2611c93565b602002602001018181525050505b505b647fffffffff600192831c16910161161b565b5f5f604083850312156118e6575f5ffd5b50508035926020909101359150565b803564ffffffffff81168114611909575f5ffd5b919050565b5f5f5f60608486031215611920575f5ffd5b8335925060208401359150611937604085016118f5565b90509250925092565b803560ff81168114611909575f5ffd5b5f5f60408385031215611961575f5ffd5b61196a83611940565b9150611978602084016118f5565b90509250929050565b5f5f60408385031215611992575f5ffd5b8235915061197860208401611940565b5f5f5f606084860312156119b4575f5ffd5b833592506119c4602085016118f5565b915061193760408501611940565b602080825282518282018190525f918401906040840190835b81811015611a095783518352602093840193909201916001016119eb565b509095945050505050565b5f60208284031215611a24575f5ffd5b5035919050565b5f60208284031215611a3b575f5ffd5b6101f882611940565b634e487b7160e01b5f52601160045260245ffd5b64ffffffffff81811683821601908111156101fb576101fb611a44565b64ffffffffff82811682821603908111156101fb576101fb611a44565b6040810181835f5b6002811015611ab9578151835260209283019290910190600101611a9a565b50505092915050565b5f60208284031215611ad2575f5ffd5b5051919050565b60ff81811683821601908111156101fb576101fb611a44565b64ffffffffff8181168382160290811690818114611b1257611b12611a44565b5092915050565b6001815b6001841115611b5457808504811115611b3857611b38611a44565b6001841615611b4657908102905b60019390931c928002611b1d565b935093915050565b5f82611b6a575060016101fb565b81611b7657505f6101fb565b8160018114611b8c5760028114611b9657611bc8565b60019150506101fb565b60ff841115611ba757611ba7611a44565b6001841b915064ffffffffff821115611bc257611bc2611a44565b506101fb565b5060208310610133831016604e8410600b8410161715611c00575081810a64ffffffffff811115611bfb57611bfb611a44565b6101fb565b611c1064ffffffffff8484611b19565b8064ffffffffff04821115611c2757611c27611a44565b029392505050565b5f6101f864ffffffffff841664ffffffffff8416611b5c565b5f60ff821660ff8103611c5d57611c5d611a44565b60010192915050565b634e487b7160e01b5f52604160045260245ffd5b60ff82811682821603908111156101fb576101fb611a44565b634e487b7160e01b5f52603260045260245ffd5b818103818111156101fb576101fb611a4456fea2646970667358221220a848981bd574a094db537cc3ef1f146ac54fcd005199099ed520dcc24b97e37964736f6c634300081d0033",
  "linkReferences": {
    "poseidon-solidity/PoseidonT3.sol": {
      "PoseidonT3": [
        {
          "length": 20,
          "start": 1053
        },
        {
          "length": 20,
          "start": 1614
        },
        {
          "length": 20,
          "start": 1798
        },
        {
          "length": 20,
          "start": 5737
        },
        {
          "length": 20,
          "start": 6179
        }
      ]
    }
  },
  "deployedLinkReferences": {
    "poseidon-solidity/PoseidonT3.sol": {
      "PoseidonT3": [
        {
          "length": 20,
          "start": 1001
        },
        {
          "length": 20,
          "start": 1562
        },
        {
          "length": 20,
          "start": 1746
        },
        {
          "length": 20,
          "start": 5685
        },
        {
          "length": 20,
          "start": 6127
        }
      ]
    }
  }
}